:020000040000FA
:06000000020A3A0201A20F
:03002B00020714B5
:0300330002064A78
:0300430002073A77
:030053000200E2C6
:03006B000206305A
:100083000201360101FF01010503010F10FEFFCA42
:1000930012CA12CA12CA1286118011CA12BD1F00D7
:1000A3000000005B1F000000000C0000000C0001BA
:1000B30096511800020206FFFF010200970F00008D
:1000C300000A10020200080000050207051E0205CF
:1000D3001E020A0A03B80B02803E0102330314C056
:1000E300E074F21203B9A2AFE433F508D2AFAFA7BD
:1000F300AEA1EE5F541060061215D675A1EFEE5F48
:10010300540860081215DC75A1F78023EEA2E09273
:10011300F0EFA2E082F05017906198E0F890092781
:10012300E0C398A2D265D0335002E8F075A1FEE592
:10013300088063C0E074F21203B9A2AFE433FED2C5
:10014300AF9061A4E0F8759B00E5915854086008EE
:100153007591F71216248023E591585410600875A1
:1001630091EF12162A8014E591A2E092F0E8A2E042
:1001730082F05007E0C2E0F012176E9061A3E0F83E
:10018300E5E9585404600E12174475E9FB90619336
:10019300E0A2E640F2EEA2E092AF7F01020418C0B3
:1001A300E074F21203B9A2AFE433FED2AF9061A5BB
:1001B300E0F8E5BF585404600675BFFB121786804C
:1001C300D4C3E498F8E499F91202058026C3E49AAB
:1001D300FAE49BFBE920E7E9120205E498F8E499C5
:1001E300F922C3E498F8E499F9120205E498F8E4D3
:1001F30099F9C3E49AFAE49BFB22EB20E7CFE920C9
:10020300E7E0B90010BB0008E88AF084F8AAF022FE
:10021300E4FBC8FA22EB70227B10C833C8C933C988
:10022300335007C39AC3DBF280069A50012ADBEAF4
:10023300C833F4C8C933F4C9FA2275F008E4C833E3
:10024300C8C933C933C99AC99B5004C92AC93BD504
:10025300F0ECFBC833F4C8E4C9FA22080808EAC082
:10026300E0EBC0E086F0E7A4FA180986F0E7A42AD9
:10027300FA180986F0E7A42AFA180986F0E7A42AEF
:10028300FA1986F0E7A4FBE5F02AFA190886F0E7E5
:10029300A42BFBE5F03AFA190886F0E7A42BFBE55B
:1002A300F03AFA18180986F0E7A4C5F02BFBE43AF4
:1002B300FA1908E7C5F0C6A426F6E5F03BFBE43AD5
:1002C300FA1886F0E7A4F6E5F00826F6E43B08F60C
:1002D300E43A08F6D0E0FBD0E0FA22E4CFC0E0E451
:1002E300CEC0E0E4CDC0E0E4CCC0E075F020E6266B
:1002F300F608E633F608E633F608E633F618181878
:10030300EC33FCED33FDEE33FEEF33FFC3EC970923
:10031300ED9709EE9709EF97191919400FFFEC971D
:10032300FC09ED97FD09EE97FE191906D5F0BFEC10
:10033300F709EDF709EEF709EFF7191919D0E0FC02
:10034300D0E0FDD0E0FED0E0FF222518C582C0E05A
:10035300E51934FFC583C0E0E518C3958224F8107E
:10036300AF088583198582188008858319858218CB
:10037300D2AFCEF0A3E520F0A37808E608F0A3DE21
:10038300FAEFF0A3E58124FAF8E608F0A3E608F013
:10039300A3E608F0A30808E608F0A3E608F0A3150F
:1003A300811581D0E0FED0E0F8158115811581E833
:1003B300C0E0EEC0E022C0D02518C582C0E0E51938
:1003C30034FFC583C0E0E518C3958224F310AF085A
:1003D3008583198582188008858319858218D2AF91
:1003E300C8F0A3E9F0A3EAF0A3EBF0A37908E709C7
:1003F300F0A3D8FAECF0A3EDF0A3EEF0A3EFF0A393
:10040300D0E0F0A3D0E0F0A3D0E0F0A3E520F0A388
:10041300E5F0F0A322851983851882E0C0E0A3E00C
:10042300F9A3E0FAA3E0FBA37808E0F608A3DFFA58
:10043300E0FCA3E0FDA3E0FEA3E0FFA3E0C0E0A394
:10044300E0C0E0A3E0F5D0A3E0F520A3E0A3F5F03E
:1004530010AF0885831985821880088583198582E2
:1004630018D2AFD082D083D0E0F8D0E032120AB4F1
:10047300B900030204AFE49003017881790E80028E
:10048300F0A3D8FCD9FA7A817B10900086785D7945
:10049300018015E493A3AD82AE838A828B83F0A39C
:1004A300AA82AB838D828E83D8E9D9E775823775AB
:1004B30083E274031207FD75826475831E74001250
:1004C30007FDE4730875F0108E1A8F1B85821F8554
:1004D300831E851882851983E0CEA3E0CF851F8212
:1004E300851E83EBC9EAC8EDCBECCAC3E833C8E980
:1004F30033C9EA33CAEB33CBC3EA9EF51DEB9FF551
:100503001CB35004AB1CAA1DEC33CCED33CDD5F09A
:10051300DAAE1AAF1B22D083D082ECC0E0EDC0E08C
:10052300E493A3FCE493A3FDED4C600D1205F1EC01
:1005330024FFFCED34FFFD80EFE493A3FCE493A3DD
:10054300FDED4C600D1206BFEC24FFFCED34FFFD06
:1005530080EFD0E0FDD0E0FCE493A3C0E0E493C0DF
:10056300E022851983851882E0A3FEE0A3F52078B5
:1005730008E0A3F608DFFAE0A3FFE0A3C0E0E0A3EE
:10058300C0E0E0A3C0E0E0A3C0E0E0A3C0E010AFA0
:10059300088582188583198008858218858319D276
:1005A300AFD083D082020803D083D082E9C0E0E4D5
:1005B30093A3C386F0C5F095F0F908E493A386F0FE
:1005C300C5F095F0700BE493A3C3994005E904804B
:1005D30002A3E475F002A42582F582E5F03583F5E4
:1005E30083D0E0F9E493A3C0E0E493C0E022C0E049
:1005F300C3E49396087401939618400FE4936670CE
:100603000808740193661870007019A3A3C3E493D8
:1006130096087401939618A3A3400DD0E0D0E0D0C0
:10062300E0020555A3A3A3A3A3A3D0E022C0E074D3
:10063300F21203B9E589A2E150031214C2758900CD
:10064300C2C57F01020418C0E074F21203B9E58B3E
:10065300A2E050031214C2758B00C2E880E4740454
:10066300800474028000CCC0E0EDC0E0E518C39CB8
:10067300CCAD1950011D10AF068C188D1980068C56
:10068300188D19D2AF12077FD0E0FDD0E0FC2274A1
:10069300028000CCC0E0EDC0E0E518C39CCCAD19EE
:1006A30050011D10AF068C188D1980068C188D19FA
:1006B300D2AF12075DD0E0FDD0E0FC22C0E0C0F075
:1006C30088F0E4936670080874019366187000A8B4
:1006D300F0A3A3700BD0F0D0E0D0E0D0E00205553A
:1006E300A3A3D0F0D0E022D083D082CCC0E0E493A7
:1006F300A360061207A01470FAE493A3600612081D
:10070300CF1470FAD0E0FCE493A3C0E0E493C0E01C
:1007130022C0E0C0D0E8C0E0E9C0E0A9A8D2AFC2DF
:10072300C7E9A2E7E433F8E9A2E792AFD0E0F9D052
:10073300E0F8D0D0D0E032C0E074F21203B9A2AF37
:10074300E433FED2AFC2C0E5D1A2E4500312154C8C
:10075300EEA2E092AF7F01020418CAC0E0E493A3C3
:10076300C582CCC582C583CDC583F0A3C582CCC564
:1007730082C583CDC583DAE5D0E0CA22CAC0E0E0F2
:10078300A3C582CCC582C583CDC583F0A3C582CC66
:10079300C582C583CDC583DAE6D0E0CA22C0E0E4D2
:1007A30093A3D39C5010E493A3C39C400AD0E0D0FE
:1007B300E0D0E0020707A3A3A3D0E022C008C3E070
:1007C30096F50808A3E096420808A3E096420808B5
:1007D300A3E09645087001D3D008227009080808E1
:1007E300226016181818C6C333C608C633C608C60F
:1007F30033C608C633C6D5E0EA22C09FF59FE4732B
:10080300D09F22D083D082C09FE493C0E074019331
:10081300C0E0740293F59F227404800A7403800677
:10082300740280027401C0E0F404120836D0E012AE
:100833000A77222518F58210AF08F518400C151910
:100843008008F51840021519D2AF8519832200C01C
:10085300D0251810AF08F518500C05198008F518A5
:1008630050020519D2AFD0D022BB0102E722C082C9
:10087300C08389828A83BB0003E08002E493D08330
:10088300D082226016080808C6C313C618C613C64A
:1008930018C613C618C613C6D5E0EA22C3E0C69627
:1008A300F608A3E0C696F608A3E0C696F608A3E00A
:1008B300C696F6222518F8E43519F9222518FAE424
:1008C3003519FB222518FCE43519FD22C0E0E49319
:1008D300A36C7009D0E0D0E0D0E0020707A3A3D057
:1008E300E022251810AF08F518400C15198008F5FB
:1008F3001840021519D2AF22E76670100809E7669F
:10090300700A0809E76670040809E76622E0667062
:100913001008A3E066700A08A3E066700408A3E069
:100923006622C3E09608A3E09608A3E09608A3E036
:1009330096A2D265D03322C3E096F008A3E096F0E6
:1009430008A3E096F008A3E096F022E026F008A3BF
:10095300E036F008A3E036F008A3E036F022C0E06A
:10096300E8C0E0E58124FCF8E6A2E7D0E0F8D0E0B7
:1009730022E647F60809E647F60809E647F60809B6
:10098300E647F622E026F608A3E036F608A3E036AB
:10099300F608A3E036F622E627F60809E637F60856
:1009A30009E637F60809E637F622E657F60809E6B8
:1009B30057F60809E657F60809E657F622E056F611
:1009C30008A3E056F608A3E056F608A3E056F6227D
:1009D300E056F008A3E056F008A3E056F008A3E0C1
:1009E30056F022700422600D18C6C333C608C633FE
:1009F300C6D5E0F41822E4C396F608E496F608E4B4
:100A030096F608E496F622C6F4C608C6F4C608C6E7
:100A1300F4C608C6F4C622C3E7960809E796080990
:100A2300E7960809E79622C3E09608A3E09608A391
:100A3300E09608A3E0962275D000758140751801F1
:100A430075190300020470E6F008A3E6F008A3E6B4
:100A5300F008A3E6F022600C08C6C313C618C61339
:100A6300C6D5E0F422E0F608A3E0F608A3E0F60812
:100A7300A3E0F622CAC0E0E6F0A308DAFAD0E0FA6F
:100A830022E8F0A3E9F0A3EAF0A3EBF022E0F8A355
:100A9300E0F9A3E0FAA3E0FB22EAF0A3EBF0A3EC76
:100AA300F0A3EDF022E0FAA3E0FBA3E0FCA3E0FD5A
:100AB30022E5C754F84401F5C77901222518F582C8
:100AC300E43519F58322C2AF75D69F0200002212C6
:100AD300080699E402120806E0E502120806FEE59C
:100AE300021208066F22001208068122001208066D
:100AF300D32200120806342300120806BE23001274
:100B03000806622400120806B62400120806CF2441
:100B130000120806F5240012080630250012080604
:100B23007425001208069B2500120806EC25001206
:100B330008069C26001208065427001208061C28E3
:100B430000120806DC2800120806202900120806F5
:100B5300452900120806882900120806D529001223
:100B630008062D2B00120806B32B00120806D12B02
:100B730000120806FB2B00120806152C00120806AB
:100B8300242C001208062F2C00120806EF2C00124A
:100B93000806482D001208060A2E00120806122E17
:100BA30000120806D62E00120806422F001208066D
:100BB3006D30001208069230001208060831001248
:100BC30008069A31001208065A32001208067932D2
:100BD300001208068833001208069A33001208062A
:100BE3000A3400120806343400120806C234001214
:100BF3000806FB3400120806473500120806633660
:100C030000120806AC3800120806B73800120806AE
:100C1300C23800120806CD3800120806D738001271
:100C23000806E23800120806FC38001208060639E6
:100C3300001208061039001208061B3900120806B4
:100C43004339001208069E3900120806A83900121B
:100C53000806CC3900120806F039001208064E3A8D
:100C630000120806923A00120806AE3A001208066D
:100C7300253B001208065D3B00120806A93B001243
:100C83000806063C00120806C03C00120806A43EF3
:100C930000120806FD3E001208062D400012080649
:100CA300534000120806DC410012080658450012A2
:100CB30008062A4700120806F34800120806A0494E
:100CC300001208060B4B00120806AA4B0012080676
:100CD300EF4B00120806594C00120806684C00122C
:100CE3000806EF4E00120806A150001208060E5126
:100CF30000120806ED5100120806065300120806FA
:100D0300835400120806A25400120806F754001276
:100D13000806FC55001208062456001208067C56E5
:100D2300001208065B57001208069F5700120806B8
:100D3300EA57001208065558001208069659001281
:100D43000806FA5900120806485B00120806A85D57
:100D530000120806D95D00120806915F001208060A
:100D6300E65F00120806EA600012080687610012B7
:100D73000806E06100120806936200120806356354
:100D830000120806D563001208067A6400120806EA
:100D93007F8001120806BE80011208060583011236
:100DA30008064F83011208066A8401120806D284DA
:100DB300011208060785011208067B860112080640
:100DC300FE8801120806278A01120806BD8A01124D
:100DD3000806C593011208065A94011208064197A2
:100DE30001120806349801120806A2980112080697
:100DF300E89901120806CA9A01120806AF9C01126B
:100E03000806C09E011208062A9F01120806FC9FCD
:100E1300011208062AA001120806E7A0011208061B
:100E2300BEA10112080685A20112080629A3011218
:100E3300080652A30112080674A301120806CAA5E4
:100E430001120806A2A601120806E6A60112080668
:100E53004EA70112080606A80112080638A80112B7
:100E630008067CA801120806B2A801120806FEA80B
:100E73000112080653A90112080658A9011208060F
:100E8300ABA901120806D0A901120806DFAA0112B4
:100E9300080643AB01120806B3AB011208063FACC8
:100EA300011208060CAF01120806F0AF0112080682
:100EB30073B101120806A9B30112080657B401124F
:100EC300080607B50112080648B701120806EBB772
:100ED3000112080632B801120806DEB9011208062B
:100EE300F2B901120806FCB90112080624BA01126C
:100EF300080630BA011208064FBA011208066FBC81
:100F030001120806BEBD0112080602BE0112080640
:100F1300AABE011208068DBF0112080638C00112CD
:100F2300080684C10112080682C20112080628C3FA
:100F330001120806B8C301120806CFC3011208063E
:100F430006C40112080610C4011208061BC40112CC
:100F5300080639C4011208067DC401120806DAC462
:100F630001120806FFC40112080619C5011208067A
:100F7300A5C501120806C2C6011208062FC7011231
:100F8300080616C8011208063DC801120806B1C8B2
:100F9300011208062CC90112080630CA01120806FC
:100FA30026CB01120806D5CB01120806E8CC0112A4
:100FB300080684CD0112080611CE01120806EFCEF1
:100FC3000112080627CF011208067FCF0112080677
:100FD30048D00112080669D001120806F0D00112A8
:100FE300080614D10112080636D1011208067FD172
:100FF3000112080695D3011208067CD401120806D3
:101003002DD50112080663D701120806B3D70112C2
:101013000806F3D70112080635D80112080691D83D
:1010230001120806BFD801120806E3D80112080608
:1010330036D90112080664D9011208069DD9011296
:101043000806F2D90112080658DA01120806ACDBC9
:1010530001120806CFDD011208063CDE0112080664
:1010630065DE01120806F0DE0112080657DF0112E1
:101073000806A2DF01120806C6DF01120806EADF2E
:101083000112080645E00112080660E00112080695
:1010930019E10112080681F103120806C0F10312D7
:1010A3000806788002120806BE80021208069E8196
:1010B30002120806A08202120806A383021208067F
:1010C3002F85021208068D85021208064A8602122F
:1010D3000806688702120806D987021208061588CF
:1010E300021208066388021208066D8802120806B7
:1010F300B188021208060D8902120806A889021295
:101103000806258A02120806F48A021208068D8B45
:1011130002120806AD8B02120806E38B02120806C0
:10112300148C02120806D58C02120806E58C0212F2
:101133000806398D02120806548D02120806668DC0
:10114300021208066F8D02120806C98D02120806E4
:10115300258E02120806718E021208068C8E021268
:101163000806BD8E02120806DA8E02120806E68E03
:10117300021208065A900212080673900212080619
:10118300DA9002120806ED9002120806FB90021292
:101193000806AF9102120806939202120806999369
:1011A300021208062394021208062D94021208065E
:1011B3009A9402120806B19402120806E3940212EA
:1011C30008061C9502120806469502120806A79502
:1011D30002120806C79502120806E59502120806D0
:1011E3002B96021208065197021208069E970212C6
:1011F3000806CD97021208064398021208066B9858
:1012030002120806A49802120806B29802120806EF
:101213000A990212080659990212080698990212AD
:101223000806C89902120806F49902120806FF99E3
:10123300021208061D9A02120806DF9A0212080615
:10124300E99A021208062A9B021208067F9B0212E1
:101253000806939B02120806A19C02120806B49C7E
:1012630002120806C99C021208066B9D02120806A8
:10127300EE9D02120806AC9E02120806B79E0212E9
:101283000806E39F02120806FF9F0212080651A0F8
:101293000212080690A002120806A5A00212080670
:1012A30007A10212080696A102120806E1A1021282
:1012B300080632A402120806B0A40212080625A5E5
:1012C3000212080647A7021208065FA702120806C1
:1012D30062A7021208066EA70212080682A702126C
:1012E30008068AA702120806BDA7021208066DA8FF
:1012F30002120806E3A80212080656A902120806FB
:101303000AAA02120806BFAA02120806DEAA0212DD
:10131300080684AB02120806AFAB02120806B2AB92
:10132300021208061CAC0212080644AD021208069B
:101333001CAE02120806A7AE02120806C0AF0212C4
:1013430008067DB002120806B6B002120806E7B01E
:1013530002120806A5B102120806D5B10212080648
:10136300B0B20212080649B302120806D4B302123D
:10137300080685B40212080608B5021208063AB533
:10138300021208067BB50212080648F50212080687
:10139300AFF502120806ECF50212080646F6021231
:1013A3000806D1F802120806DEFA02120806F8FD52
:1013B3000212080624FE021208064EFE0212080656
:1013C300D0FE02120806F8FE021208061FFF0212E0
:1013D300080657FF02120806AEFF021208062B8DFD
:1013E30003120806BDD702120806EC8D0312080685
:1013F300558E031208060390031208061F9003126A
:1014030008065D9003120806EB9003120806479145
:10141300031208066C92031208068493031208064B
:10142300DB93031208064A94031208068C940312F2
:101433000806CD9403120806889503120806F6E3FE
:1014430002120806B796031208060F97031208063E
:10145300469703120806D897031208067D980312CD
:10146300080632F20312080643F20312080611E6D5
:10147300031208061FE603120806E6FF0112080618
:1014830002F00312080612F0031208062DF00312ED
:1014930008068EF003120806B1ED0312080635EEB6
:1014A300031208069BEE031208067EEA03120806DF
:1014B300A0EA031208060AEB0312080615EB03124F
:1014C30008065AEB031208062DA70312080643A7C2
:1014D3000312080665A70312080680A7031208066D
:1014E3009BA703120806A5A703120806AFA70312BA
:1014F3000806C2A703120806DBA70312080675A88D
:101503000312080648AB03120806ACC00312080610
:10151300BAC00312080633C1031208060CC2031231
:101523000806A4C4031208065DF203120806D4AD2C
:101533000312080641AE0312080601AF03120806A0
:10154300F8AF0312080665B103120806CCB1031203
:10155300080624B2031208062DB2031208063DB290
:1015630003120806B3B203120806C9B2031208062F
:10157300D3B20312080632BC0312080687BC031257
:10158300080681BE03120806B5BE03120806D7BEBD
:1015930003120806F0BE0312080609BF0312080669
:1015A300E3BF0312080679C003120806BFE703125C
:1015B3000806E3E703120806FCE7031208063AE805
:1015C3000312080670E803120806A3E803120806CC
:1015D3000FE90312080612E9031208061CE90312B5
:1015E300080629E90312080681D803120806A4D8BD
:1015F30003120806EFD80312080601D903120806DE
:101603001CD90312080682D9031208068ED90312C5
:101613000806EBD9031208060FDA03120806D5DA17
:1016230003120806E2DA03120806F3DA03120806C5
:10163300CAF103120806E7F1031208062EB30312D8
:10164300080685B40312080693B403120806A7B468
:1016530003120806C4B403120806D9B40312080619
:10166300ECB4031208066EB503120806D3B50312D1
:10167300080669B60312080642B70312080652B7F2
:101683000312080661B70312080669EF031208067E
:101693008DEF03120806B5EF03120806DDEF031200
:1016A300080621DB0312080648DB0312080667DB82
:1016B30003120806D9DB031208068FDD031208069E
:1016C300A8DD03120806BFDD03120806C8DD0312F6
:1016D3000806E6DD03120806F0DD03120806FADD4C
:1016E300031208060DDE0312080664DE0312080661
:1016F3009DDE03120806CBDE031208061CDF03126D
:10170300080668DF0312080683DF031208068DDF6D
:10171300031208069EDF03120806E1DF0312080620
:1017230098F0031208069AF501120806C6F501128D
:101733000806E9F501120806FCF50112080617F67A
:101743000112080677F601120806A5F6011208062B
:10175300D3FA0112080615FC0112080647FC011210
:101763000806AAFC01120806FCFD0112080624FE65
:101773000112080639FE0112080649FE0112080685
:1017830089FE01120806CBFE01120806DBFE0112D8
:10179300080633E90312080643E90312080667E95A
:1017A3000312080690E903120806BAE903120806B1
:1017B300DEE903120806F5E90312080623EA031219
:1017C300080646EA03120806BC7F00120806A5C8ED
:1017D30003120806B5C803120806D1C90312080686
:1017E30003CA0312080629CA0312080651CA0312C0
:1017F300080663CA031208069FCA0312080605CB2C
:101803000312080641CB0312080686CB031208060F
:10181300B3CB03120806D4CB03120806C1D50312B7
:10182300080636D60312080641D60312080662D606
:1018330003120806A5EC03120806BDEC0312080602
:10184300ABED03120806AEED03120806B4EE031265
:101853000806EAEE0312080606EF0312080648EF2D
:101863000312080658EF03120806E8980312080645
:10187300399903120806BE9903120806DD9903126B
:101883000806B59A03120806BE9A031208060F9BB0
:1018930003120806389B031208068E9B03120806E0
:1018A3000D9C03120806449C031208068F9C031226
:1018B3000806FB9C03120806279D031208069D9D3C
:1018C30003120806FA9D031208063D9E031208063A
:1018D300789E031208068A9E031208069C9E031232
:1018E3000806BB9E03120806C49E031208068F9FB8
:1018F30003120806D79F031208060BFF01120806FE
:10190300ECDF0312080622E00312080671E003125B
:101913000806D4E10312080653E10112080695E212
:1019230001120806CCE20112080687E40112080638
:10193300B8E40112080653E70112080693E70112FF
:1019430008061DE901120806B2E90112080610EAA9
:10195300011208069AEA01120806D2EA01120806E1
:1019630014EB011208068EEC011208062DEE01128B
:10197300080683F001120806B1F001120806DAF036
:1019830001120806E3F0011208065AF101120806D3
:101993000DF5011208067FF20312080695F20312F1
:1019A300080636F10312080628CC031208063DCCBC
:1019B30003120806D8CC0312080614CD0312080636
:1019C3002BCD0312080651CD0312080696CD031240
:1019D3000806C7CD03120806FFCD031208066FCF12
:1019E3000312080692EB0312080604EC031208061E
:1019F30042EC0312080683EC03120806B8D2031262
:101A0300080679D30312080613D403120806A3D5D4
:101A13000312080600800312080655800312080605
:101A2300418103120806DC8103120806288203128F
:101A330008068C8203120806A08203120806D282CB
:101A430003120806B483031208064384031208062C
:101A53005A8403120806A58403120806BB840312E2
:101A63000806C88403120806FC84031208061C85B2
:101A730003120806AB850312080600860312080644
:101A8300428603120806738603120806E7880312C8
:101A93000806188903120806AC89031208062C8A63
:101AA30003120806318A03120806608A0312080625
:101AB300C68A03120806878B03120806B18B03122A
:101AC3000806BB8B03120806BE8B03120806438C61
:101AD300031208066C8C031208067F8C0312080697
:101AE300BA8C03120806BD8C03120806C78C0312B6
:101AF3000806F68C03120806E9F00312080601F142
:101B03000312080611A00312080660A003120806B8
:101B130010A203120806CBA30312080609A403129A
:101B23000806D2A403120806FCA5031208061EA683
:101B3300031208067AA603120806FDA60312080676
:101B4300C66400120806E764001208066065001206
:101B53000806DB65001208064D6600120806C56616
:101B6300001208060C67001208067B6700120806BD
:101B73001068001208068B6800120806D06800126D
:101B83000806B46D001208062A6F00120806E46FF7
:101B9300001208063B70001208065672001208066F
:101BA300FB7400120806AC7500120806DF760012FB
:101BB3000806427A00120806527A00120806B77B1A
:101BC30000120806257C001208063D7D0012080657
:101BD300647E00120806F57E0012080625E602124E
:101BE3000806C7E60212080639E702120806EBE701
:101BF300021208064AE80212080633EB021208062C
:101C030042EC02120806C2EC0212080672EE02123D
:101C1300080622EF02120806DAEF021208066BF139
:101C23000212080680F20212080611F302120806D5
:101C3300F5F30212080689CF03120806D3CF031265
:101C4300080620D00312080692D003120806C8D053
:101C53000312080634D103120806C5D1031208067D
:101C630005D2031208061BD2031208066FD2031211
:101C73000806A4D20312080630E40312080663E43C
:101C8300031208061CE50312080684E5031208067E
:101C930009C50312080628C50312080677C50312EF
:101CA300080693C503120806C4C503120806DAC55D
:101CB30003120806F3C503120806B9C60312080681
:101CC300FBC60312080605C80312080610C8031250
:101CD300080622C8031208062BC80312080635C8D3
:101CE3000312080692B703120806BDBB03120806C7
:101CF300CBBB03120806B6E20312080606F2031270
:101D0300080686D602120806DAD50212080620D47F
:101D130002120806D0D10212080657D10212080691
:101D2300FED0021208068ED00212080665D00212F7
:101D3300080645CE0212080611CE02120806DECDB1
:101D430002120806C2CD02120806DBCC02120806F4
:101D530093CC02120806DECA021208065ECA0212F9
:101D630008065BCA0212080658C90212080626C9E9
:101D73000212080663C8021208068EC6021208067B
:101D83001FC602120806A9E20212080654E0021254
:101D9300080672DF0212080656DF02120806F6DE94
:101DA30002120806AEDE02120806FCDD0212080665
:101DB300F1C502120806EEC502120806DBC50212BF
:101DC30008066EDD0212080686C50212080675C5EE
:101DD3000212080667C40212080631C4021208067A
:101DE30061DD02120806DFC3021208067E960312A3
:101DF300080680C3021208064FC30212080617C062
:101E030002120806D7BF02120806CBBF0212080649
:101E13002BBF021208066BBE02120806EDBB0212AC
:101E230008067EB9021208063CB90212080610B869
:101E330002120806C5B70212080604B70212080602
:101E4300D7B6021208061AB6021208065BDA0212A5
:101E53000806EAB502120806B0B502120806A98DF3
:101E63000300000080FB000136360101000102017E
:101E73000001030100010401060605020000070139
:101E830000340801000F090401010D0100FF0E08D1
:101E9300000017020000190100FF1A0100011B01D5
:101EA30000FE1C0100081D0200001F0100012001AB
:101EB3000001210200002301000F2402000026017B
:101EC300000127010008280200FF2A0100072B0157
:101ED30002402C0100002D0100012E0100012F0101
:101EE30000FF30010B1C310800003A0100083B01E0
:101EF300000F2F0100000302710230016002110282
:101F030070020102020202028002100261023A0020
:101F1300410063027302720262024302000213026F
:101F23003800000200020402120200020002000252
:101F3300000204020402370037003C02440200029C
:101F4300390000020002650200023502810200022C
:101F530005028202830200020103710301030103EC
:101F6300010301030103220302030103100300031E
:101F73000003000300030003000300034203000304
:101F830024030603000300030403120325032303AE
:101F93002503230304030403000300030003440392
:101FA30000030003230300036503210035038103BA
:101FB3000003050300030003000303007100300165
:101FC30060001100700031022003500480001000F3
:101FD300610000001400630073007200620043009C
:101FE30000001300060000000000040012000000BF
:101FF30000000000000004000400370037003C022A
:1020030044000000000000000000650000003500EF
:102013008100000005000000830000000304710438
:1020230002046004110470040204020401040204A3
:10203300100461040004140463047304720462044E
:1020430043040004130406040004000404041204FB
:1020530000040004000400045104640000040004AC
:1020630000044404000400040004000465040004A4
:1020730035048104640005040004830400040101A1
:10208300710101010101110101013101010101018D
:102093008001100161013B001400630173017201AF
:1020A300620143010001130106013D0135000401F2
:1020B30012010001000100010001040104013301C8
:1020C30033013C0144013201360000010001650186
:1020D3000001350081010001050182018301000136
:1020E30036000100060000000F00000000000000A1
:1020F30000000000000003FFFF00000403FFFF00D7
:1021030000FFFF0FF4010005C404032000010003D6
:102113000B000000000000000003010F0000F41B8F
:102123001300941B0100F41B02005E1B0300641BDD
:1021330004006A1B0500701B06007C1BFFFF0000E8
:1021430001D80D06080E08020E0B140E10540D02D2
:10215300DE0D05F60D07E40D0CBA0D0DCC0DFF00D9
:1021630000E0111012E611EC110A12FE11F811161B
:10217300121C1222122E12F211DA11D41103EAF5F3
:10218300E5D5D5C5B5A5959585857575656555550C
:1021930045453535252515150500160F00000B158A
:1021A3000B020002220F32000006CA12DC12E212F6
:1021B300AA11E812A411B0112413421348132A13CD
:1021C30036133013E410DE101A1120111411CC1041
:1021D30000011916181616152303000C0E020B0422
:1021E3000B0A0708000F00034948424D181725053D
:1021F30002303016181920231A1C1E3030301718DD
:102203001921301B1D1F3000383C3E363B3B352B1C
:10221300432C041228123C1334123A121813EE12F0
:10222300F4120013FA12020402010101010902F07F
:1022330010F610EA102611000000000000FC100E3A
:102243001100BE040A0E00150004007F00E803001D
:1022530000000028000C00100C0A03080900040009
:1022630009FF1E1E0301040510080F0CC082C08362
:102273008A828B83E0D2E7F0121AC20233E6C0826D
:10228300C083790012273B125452C082C08390034B
:10229300341241D8D083D082C3E09CA3E09D500C7C
:1022A300125B26FAA3E01222B26001090233E6FBB5
:1022B300EA75F00BA4FAA8F075F00BEBA428FB90D9
:1022C3000336E02AF8A3E03B8882F583E0540F222B
:1022D30074F712034D890812273B1227E1ACF075FE
:1022E300F00BE9A42CF9900336E028FEA3E039FFB4
:1022F3007401650860067402650870208A828B8306
:102303001227CD1234B474026508701B12268C1286
:10231300281470138E828F83E4F0800BEA2403FC6D
:10232300EB1227AF1227BBEEFAEFFB120AE40234DB
:102333001E74F412034D12644D79008E828F83E074
:102343006076890A890B8065E50A75F00BA4FAA803
:10235300F075F00BE50B1222BF7046E50A75F00B22
:10236300A4F8AAF075F00BE50B1227F38E828F8386
:10237300E08508828509831228D58508828509832B
:10238300A31234B4EE2403FCEF1227B81233ED1278
:102393004ECCAA08AB09120AE4790190033412481F
:1023A300E1E50A2401F50AE50B3400F50B12269446
:1023B300E50A9AE50B9B409002365E74F512034DD5
:1023C300EAFEEBFF740B120ABF1233F2750A01EC3B
:1023D3004D602BEC126469ED1254521234AC790146
:1023E300120AF0E5084509606F850882850983A311
:1023F3001264577902AA08AB09120AF0805AE50859
:102403004509602B125456123B201233EE1227FE5D
:10241300700CEEFAEFFB120AF6E9F50A80CBEE2414
:1024230003FA12273670317903EEFAEFFB80CA8E76
:10243300828F83A3E064FE7003A3E0F4700BEE24A9
:10244300030A0A0A122736700CEEFAEFFB120AF699
:10245300E9F50A8003750A00A90A7F03020565747A
:10246300F712034D90033412342EEA4B602FEA75B2
:10247300F00BA4FAA8F075F00BEBA428FBEAFEEB33
:10248300FF12190C90033612342E9003361247268E
:102493006012EEFCEFFD7900121876800790033688
:1024A300E4F0A3F002341E900334123E90C3EE987E
:1024B300EF9922C082C083EC4D60051219F68009A2
:1024C3007C087D0079001218760233E674F6120355
:1024D3004D7900EA4B601878008808125799EB127F
:1024E3005B2260047901780808E8C3940840EA0293
:1024F30034BD74F712034D74F31208E5ECFEEDFFDF
:10250300851882851983E4F004120ABFEAF0A3EB6D
:10251300124C527403120ABFAC82AD83EEFAEFFB86
:10252300120B08EEFAEFFB120B0E02341974F712BA
:10253300034D74F31208E5ECFEEDFF85188285194F
:1025430083E4F0EAFCEBFD7403120ABF1228CE7495
:1025530001120ABF1234A88E828F831234B474FE20
:1025630068700374FF6960047901800279000234A2
:102573001974F712034DEAFEEBFF1225D270141201
:1025830025DD8E828F83E0F4F88A828B83E058F016
:10259300120AE4A90802341E74F712034DEAFEEB93
:1025A300FF7508008E828F83E060221225D2701D92
:1025B3001225DD8A828B83E08F838E82F8E0587048
:1025C3000CE0F88A828B83E048F0120AE480C4129C
:1025D3000AEAE9F50874016508221264621227E524
:1025E300122727FAA3E039FB2274F412034D8A0859
:1025F3008B097C007D0012268C1227BB12274C12FC
:1026030064547900850882850983A3E064FE70031E
:10261300A3E0F460717E007F008062EEFAEF122285
:10262300B26057EEFAEFFBEA75F00BA4FAA8F07567
:10263300F00BEBA428FB900336E02AF50AA3E03B5A
:10264300F50B850882850983A3124BA0850A828531
:102653000B83A3E06A7003A3E06B701EE50A2403F7
:10266300FAE50B122737700AE50A2403FCE50B127F
:1026730027B8122740790112546812302B1226947E
:10268300EE9AEF9B409502365EEA24030A0A0AEBB0
:102693002290033412503FC32274F312034D8A086D
:1026A3008B098A828B83A312645712273B126454CB
:1026B300750C0012268C12273770547E007F008021
:1026C30049122719FAA3E0398A82F583E0540F608F
:1026D30036122719F50AA3E039F50BE50A2403FCA2
:1026E300E50B1227C23400FB1219F0E964017017DD
:1026F300850A82850B83A3125100A31234B41227D7
:1027030040750C0112546812302B1224AA40B2A94E
:102713000C7F05020565EEF8EFF9E875F00BA4F8F8
:1027230012272722AAF075F00BE9A42AF9900336A1
:10273300E02822EF12280E22126468EB2212274CA3
:10274300125463EEF0A3EFF022E508126469E50981
:102753002274F512034DEAFEEBFF8E828F83A312E0
:1027630064577C007D00EE24030A0A0AEF1227BB9C
:10277300EEFAEFFB120AEAE9F50A7401650A702919
:102783001264621227E1AAF075F00BE91227F385B0
:102793000882F5831227CD1227FE700DE508240366
:1027A300FCE5091227AF1227BB02245B3400FDEEC0
:1027B3002403FAEF221227C23400FB120B0822343F
:1027C30000FDE5082403FAE50922A31227D2221209
:1027D30027D622E0F8A3E0F98E828F83A322122763
:1027E300E5223400F583123E94E875F00BA4F82239
:1027F30012272DF508A3E039F50922E8F0A3E9F043
:10280300E5082403FAE50912280E221228146401AC
:10281300223400FB120B0EE92274F312034D74E60B
:102823001208E512644D750C0175080075090075F1
:102833000A00750B00851882851983E4F0EE2403E2
:10284300FCEF3400FD7403120ABF1228CEE96401C1
:102853007023740B120ABF1234AC7401120ABF1234
:102863004BA47003A3E069605185188285198385A1
:102873008208858309740D120ABFE41228D5740EE9
:10288300120ABF1234B4740D120ABFAA82AB8312A8
:102893000B2CE96401700B740D120ABF85820A8543
:1028A300830B780A120823AC08AD09EEFAEFFB128A
:1028B3000AFC7402120851E9F50CEEFAEFFB120B55
:1028C30026A90C741A120851022714122BA1120BF9
:1028D3003222123429123E9022C082C083780079BA
:1028E3000080031229CC122694E89AE99B5029E828
:1028F300FAE9FBEA75F00BA4FAACF075F00BEBA464
:102903002CFB900336E02AFCA3E03B8C82F583E0AA
:10291300540F70CF7900800279010233E6C082C080
:102923008390224A123EE6EC75F012A4FCA8F075DF
:10293300F012EDA428FD79FF7A9D7B091218760227
:1029430033E674F712034DE9FEEAFF7A007B007861
:102953000079008028E8FCE9FDEC75F012A4FC8501
:10296300F00875F012EDA42508122DE1C39E400A6C
:10297300E0FCEFC39C4003122F001229CC122DD58B
:1029830040D302341EC082C08378007900800312D2
:1029930029CC1229C0501F122DE5F470F2E875F00E
:1029A30012A4F8AAF075F012E9A42AF9749D28FA82
:1029B300740939FB80047A007B000233E690224AD3
:1029C300122E96C3E89AE99B22E8240108E9340011
:1029D300F92274F012034D74F31208E58A0A8B0B83
:1029E3008C0C8D0D8908EC450D6016AA0CAB0D12ED
:1029F3000B808A0E8B0FAE0EAF0FEE4F6003022AD1
:102A030093120B568A0E8B0FA80EA90FE8FEE9FF4F
:102A1300E849607C902254122AF560227403650809
:102A230060067404650870167A047903120B5090DB
:102A33002254122B0C40077A007B00022AF29022C8
:102A430052122AF5601B740165086006740265085A
:102A5300700F7A027901120B50902252122B0C50F4
:102A6300D68518828519837401F0120ABF124ECCE1
:102A7300AC0CAD0D7403120ABF122B9A740B120A1D
:102A8300BF1233FA123894E4124EB41210248004A5
:102A9300EE4F604A780074FF2508C394045002780F
:102AA300048E828F83124ECC8E828F83A3A3A3A323
:102AB300E508F0E88E828F83A3A3A3A3A3124ED4C9
:102AC3001201FD122EAD8E828F83A3A3A3A3A3A312
:102AD300A3F0122EA4120AA812544C120A9C122A12
:102AE300FA4005901085E4F0120EFEEEFAEFFB02B9
:102AF3003E9A124FEE49227A047900120B5090222B
:102B03004A125B08EA98EB9922122B2575832275EA
:102B1300824AE493C398F8A3E49399F9C3EA98EB40
:102B23009922E493F8740193F92274F212034D7419
:102B3300F31208E58A088B09ECFEEDFF750A00EE37
:102B4300FAEFFB120B808A0C8B0DA80CA90DE84938
:102B5300603E88828983E065087004A3E0650960AC
:102B63002F88828983A3A3A3A3E0C39405502112D2
:102B730052FA8518828519837401F0120ABF125222
:102B8300FEEEFCEFFD7403120ABF122B9A750A01C5
:102B9300A90A740D024998122BA1120B3E22AA8294
:102BA300AB83120B08851882851983AA82AB832213
:102BB30074F612034D122BEF600FA3A3A3A3E0142B
:102BC300C3940450047901800279000234BD74F681
:102BD30012034D122BEF600FA3A3A3A3E014C3941E
:102BE3000250047901800279000234BD120B7A8A03
:102BF300828B83E58245832274F612034D122BEFF9
:102C0300600BA3A3A3A3E0700479018002790002FF
:102C130034BDC082C083EAFCEBFD7A007B00023343
:102C2300E3C082C0837C007D000233E374F41203AB
:102C33004D74F31208E5EAFEEBFF8C0A8D0BC3EC2F
:102C430094F8ED94FF4007EE4F7003022CE87508EB
:102C530000750900802E8518828519837401F0128E
:102C63003053120ABF12306160137403120ABFACEF
:102C730082AD83EEFAEFFB1219F0E97049E50824FF
:102C830001122E8190224AE4124FF6E50898E509D5
:102C9300995052E50875F012A4F8AAF075F012E500
:102CA30009A42AF9125B3B60D4EE4F70A974FF6547
:102CB3000A700474FF650B60C4123043650A700424
:102CC300A3E0650B70B7E50875F012A4F508A8F04A
:102CD30075F012E509A428F509749D2508FA74090D
:102CE3003509FB80047A007B0002365974F4120321
:102CF3004D74F31208E5750800120B808A0A8B0BDA
:102D0300AE0AAF0BEE4F602A8518828519837401D2
:102D1300123423F8A3E0F9740B120ABF12353712E9
:102D23000B207C127D0079FFEEFAEFFB121876750B
:102D33000801122AFA50099010857401F0120EFE50
:102D4300A90802365974F712034DE9FE74FE6A703E
:102D53000374FF6B78007900700580521229CC123E
:102D63002DD5504AE8FCE9FDEC75F012A4FCAFF058
:102D730075F012EDA42F122DE1F460E0E8FCE9FDFB
:102D8300EC75F012A4FC75F012EDA42FFD749D2CCC
:102D9300F58274093DF583E06A7003A3E06B70BCB0
:102DA3008009122DE514C3940440171229CC12296B
:102DB300C05018EE70EC122DE564016005E0640369
:102DC30070E9123034FAA3E0FB80047AFE7BFF0241
:102DD300341E90224A123EEAC3E89CE99D22122F38
:102DE3003522E8FAE9FBEA75F012A4FAACF075F0C3
:102DF30012EBA42CFB74A12AF58274093BF583E042
:102E030022120B920233E6C082C083790180F274EE
:102E1300F012034D8A0A8B0B7A047901120B508A44
:102E23000C8B0DEA450D603EEAC333FAEB33FB121C
:102E3300190C8A088B09AE08AF09EE4F60237AFE9E
:102E43007BFF120B9874FE6A700374FF6B601B8523
:102E5300088285098312342EE5082402122E81800C
:102E6300E1750C0080047E007F00850A82850B8358
:102E7300E50CF0EEFAEFFB023E9FE5082407F508A8
:102E8300E5093400F5092290224A123EEAC3EA9C7E
:102E9300EB9D22E493FA740193FB2212186A7403E4
:102EA3002212545DE4F090806422E88E828F83A323
:102EB300A3A3A3A3A3A3A3122ECF7401122ECFA364
:102EC300F0EE2410125460E4F0A3F0221238A0A311
:102ED300A3A322C082C0837A007B00800419122F2F
:102EE30000122E8A5010122F1FC3940550F0E97060
:102EF300EC122F0980047A007B000233E6EA2401F6
:102F03000AEB3400FB22EA75F012A4FA75F012EB17
:102F1300A428FB749D2AFA74093BFB22EAFCEBFD0F
:102F2300EC75F012A4FCA8F075F012EDA428122F92
:102F33003522FD74A12CF58274093DF583E02274DA
:102F4300F712034D74F31208E57E007F00022FE7AA
:102F5300E50875F017A4F8A9F0125D9CFAA3E0FB4D
:102F6300EEF8EFF9E875F012A4F8ACF075F012E999
:102F7300A42C1230426A7003A3E06B603FE508752E
:102F8300F017A4F8AAF0EA125D9BF8A3E0F9740124
:102F9300120ABFE0687003A3E0696020E50875F0DA
:102FA30017A4F8EAF9741928FC740B39FD74031299
:102FB3000ABFAA82AB831219F0E96014E50875F021
:102FC30017A4F8A9F0741728FA740B39FB12103000
:102FD300050890225AE493F8E508C3985003022F9A
:102FE3005312302B90224A1260E25039EEF8EFF977
:102FF300123034F47003A3E0F460E6851882851977
:10300300837401F0EEF8EFF9E875F012A4F875F0A7
:1030130012E9A42AF9123053120ABF12306160C1B7
:1030230075080080AD023419EE24010EEF3400FF61
:1030330022E875F012A4F8AAF075F012E9A42AF9AF
:1030430012304722749D28F582740939F583E022F2
:10305300749F28F582740939123E8E740B22E8F0AE
:10306300A3E912353F120B38E922C082C0839003D3
:103073003D74F0F0A3740DF090033F74EAF0A37471
:103083000DF0900343740AF0A3740CF00233E6745A
:10309300F712034DEAFEEBFF900377E06408601B31
:1030A300E0640460168E828F83E0540364017048E9
:1030B3001233ED123995E06406703D8E828F83A33F
:1030C300A3E064FE7003A3E0F4602D8E828F83A3DC
:1030D300A31234A8900368E0687003A3E069700B3F
:1030E300EE2415F582EF125B226008120E9EE9F5BD
:1030F300088008120EA480F67508C2EEFAEFFB12E0
:10310300191202259674F412034D8A088B098A82D8
:103113008B83E0F8A3E0FAE82AFAE43400FB1219FF
:103123000C8A0A8B0BAE0AAF0BEE4F6063850882E5
:10313300850983E0FC7D0079001218768E828F83E7
:10314300A3A3126457120EE08E828F83A3A3A3A3BB
:1031530012342E850882850983E0F8EE28F8EF34CF
:10316300001234B0850882850983A3E0C0E0EE2411
:103173000D12544FD0E0F0120EF2EE240E12544F03
:10318300E9124B01E0C0E0EE241112544FD0E0F0FD
:10319300EEFAEFFB02365E74F612034D74EB12087F
:1031A300E5EAFEEBFF124723600302323E7A077B18
:1031B3000012190C90033912342E12472360788EB3
:1031C300828F83120AA890033A123998120A9C122A
:1031D300631BC0E012324AD0E0F0EE2405FAEF346C
:1031E30000FB8A088B098A82F583E0C0E01232452E
:1031F300D0E0123655E0C0E0123245A3D0E01234DD
:103203009A120AA8851882851983120A9C888289D2
:1032130083E0C0E07405120ABFD0E0F08508828520
:103223000983E0C0E07404120ABFD0E0F07407120F
:103233000ABF123380800679108002790174150267
:1032430034BA12324AA322900339E0FAA3E0F58399
:103253008A82A3A3A3A322C082C083124723600D43
:1032630090033912502D900339E4F0A3F0120E0E9F
:10327300120FD00233E674F012034D74EB1208E51B
:10328300ECFEEDFF89087425120ABF780C120A6858
:103293007429120ABFE0F9742A120ABFE0FC742BE6
:1032A300120ABFE0FD740F697005740F6C60129011
:1032B30010CFE06402700579C102337BE9C39C40FF
:1032C300F6900378780C120A4AE50890037EF0E939
:1032D30090037CF0ECA3F0ED90037FF074FF6A7031
:1032E3000374FF6B701D9010DAE0F47003A3E0F435
:1032F3007005121882800C9010DA123403E8F0A3E0
:10330300E98007900375EAF0A3EBF0EE4F6017EE48
:10331300FAEFFB121090E96401700BEEFCEFFD7AFB
:10332300897B031219F6900368E4F0A3F090036B12
:10333300F0A3F0900388F09010CFE064027008903F
:10334300037C740FF0A3F09003777405F014120A52
:10335300BFE4F0900378120AA885188285198312B6
:103363000A9C90037EE0C0E07405120ABFD0E0F02F
:103373007407120ABF1233807415023E9CE412359F
:103383003F121CB422C082C083900338E070031242
:103393001B8E120BDA804CC082C083900338E090FE
:1033A30010847004E4F0802D7401F0900338E0F48D
:1033B30060237C41E0C394415002E0FCECF8E0C39D
:1033C30098F0EC75F0E8A4CCA8F075F003A428FD00
:1033D3007A80123EF27A847B107941121CA2800318
:1033E300120B86D083D082020803EE12545E22E0D1
:1033F300F508A3E0F509221233FE221227D6A322F1
:10340300123E909003752274F712034DEB90037FE5
:10341300F0120DFC8005740D1208517F0102056541
:10342300123429A3E02212349AA322EAF0A3EBF088
:103433002274F712034D74F81208E5EAFEEBFF79E4
:1034430000900377E06408704485188285198374BB
:10345300FDF0A374FFF0120EDA7402120ABF1234E5
:103463002E7405120ABFE4123429E0C0E07404127A
:103473000ABFD0E0123495C0E07406120ABFD0E050
:10348300F07407120ABFE412353B120F1C740802D2
:10349300341B12349AE022F08E828F8322F0851837
:1034A3008285198322123E9022E0F8A3E0F9125498
:1034B3005DE8F0A3E9F0221208517F02020565C01E
:1034C30082C083900349749AF0A3740CF09003EFC5
:1034D3007476F0A3740FF090034D74D0F0A3740CC2
:1034E300F090034F749AF0A3740CF090035174D6C8
:1034F300F0A3740CF00233E674F412034D74F91262
:1035030008E58A088B098C0A8D0B85188285198337
:103513007808120A4A7404120ABFE9F07405120A01
:10352300BFE4F07406120ABFE412353B120BC274F7
:103533000702365BE8F0A3E912353F221234A0AA52
:1035430082AB832274F412034D8A088B098A828B1F
:103553008312546BEE4F70030236539003121247DB
:103563002660158A828B83A3A3E0F9EEFAEFFB9022
:1035730003131239981204C58E828F83A3A3A3A3C6
:10358300A3A3A3A3A3E0640270748E828F83A3A377
:10359300A3A3A3A3E0540270030236258508828502
:1035A3000983A3A3E064E960798E828F83A3A3A335
:1035B300A3A3A3A3A3A3A3E070149010D2E0048E4B
:1035C300828F83A3A3A3A3A3A3A3A3A3A3F08E8206
:1035D3008F83A3A3A3A3A3A3A3A3A3A3E01412363C
:1035E30055A3A3A37404F09010D3124EA6E8F0A33E
:1035F300E9125F7F8B0BEA450B700312595D8E82D4
:103603008F83A3A3A3A3A3A3A3A3A3E06402601232
:103613008E828F83A3A3A3A3A3A3A3A3A3E0640680
:10362300702E8E828F83A3A3A3A3A3A3E0A2E05053
:103633001F850882850983A3A3E0F9EEFAEFFB1245
:103643001D3E8E828F83A3A3A3A3A3A3E054FEF006
:10365300800912389C22740D1208517F04020565FB
:1036630074EC12034D74DD1208E5EAFEEBFF8C08DF
:103673008D097437120ABF780C120A68750A007430
:1036830005120ABFAC82AD83121D8C7412120ABFDD
:10369300E070087415120ABFE060207405120ABFB7
:1036A300E0A2E6501E8E828F83A3A3A3A3A3A3A3AA
:1036B300A3A3124BA0120F52E96008790312184614
:1036C3000238827405120ABFE0540C640470057555
:1036D3000B018003750B00E0A2E55035750A01E587
:1036E3000BA2E0402C120EE08A108B11A810A91136
:1036F3001233EDE0687003A3E06960157405120AE4
:10370300BF12645E124B9C121D4AE9600479048067
:10371300AC7405120ABFE0A2E650227406120ABF77
:10372300E0540370187405120ABFE0540C640C6073
:103733000CE0540C640860057510018003751000DB
:103743007405120ABFE05403F8740268700C126423
:103753005E124B9C120AD2023882740168703AE5F9
:1037630010A2E0500312388A7405120ABFA882A976
:10377300837403120ABFE8F0A3E9123E848518821A
:10378300851983123894E0C0E07402120ABFD0E0B6
:1037930012353B121E3A023882E8600302388290E7
:1037A300035FE0640170108E828F83A3A3A3A3A39E
:1037B300A3E070030237107422120ABF7402123E90
:1037C30084741A120ABF1234B4E510A2E0500874CC
:1037D30005120ABF12388AE50BA2E0506AEE240FE5
:1037E300F582EF125B22C0E07417120ABFD0E0F03B
:1037F3009003141247267003023882120EE08A12D5
:103803008B13A812A913741A120ABFE0687003A3DA
:10381300E069706B780C12081B780A120827780885
:10382300120823A910740C120ABFAC82AD83742151
:10383300120ABFAA82AB839003141239951204C5EE
:1038430074071208518038780C12081B780A120882
:10385300277808120823900375120665EE2412F5E3
:1038630082EF1258507423120ABFAC82AD83740ED8
:10387300120ABFAA82AB83121D3274091208517453
:1038830023120851025F4A12645E12503B121D86D6
:1038930022E8F0A3E912389C221238A022F08E828B
:1038A3008F83A3A3A3A3A3A32274F712034D121A16
:1038B3007A02341E74F712034D121A8002341E74F6
:1038C300F712034D121A8C02341EC082C083121ADF
:1038D300860233E674F712034D121A9202341E74F1
:1038E300F712034D7409120ABFE0F50878081208AD
:1038F30027121A9E740102341BC082C083121AAAB3
:103903000233E6C082C083121AB00233E674F712A0
:10391300034D121AB602341E74F712034DEAFEEB7E
:10392300FF89087401650870147900120D12902242
:1039330065E493FC7900EEFAEFFB120C8802341E67
:1039430074F412034D74F91208E5E9FE8A088B0931
:103953008C0A8D0B7413120ABF124BA0900FCA125C
:1039630047266027EE851882851983F07401120AB1
:10397300BF7808120A4AEAF8EBF97405120ABF1273
:103983003537900FCA1239951204C5023532FB90B0
:10399300034BE0F8A3E0F583888222C082C0831240
:1039A3001AE60233E674F712034D901087E0F97EAE
:1039B30000800B125B0E540D64017001190E123B53
:1039C300A25003E970ED02341E74F712034D9010F8
:1039D30088E0F97E00800B125B0E548D64817001C8
:1039E300190E123BA25003E970ED02341E74F21259
:1039F300034D890BE975F006A4240CF508E5F012D4
:103A03002E858A0CE508250CFAE5093400FB12190A
:103A13000C8A0C8B0DAE0CAF0DEE4F6027AC08ADCE
:103A23000979001218761233EDE50BF0EE2508F84C
:103A3300EF3509F98E828F83A3A3A3A3A3A3A3A323
:103A4300A31234B4EEFAEFFB02499B74F612034D52
:103A5300EAFEEBFF120C64901086E0F8E9C398408D
:103A630009900345124BA0120C6AEE2402F8EF12E0
:103A730051B090034712506A900347E004F0EEFA06
:103A8300EFFB120C70850882850983E0025666C03D
:103A930082C0837900900345800109124BA08A827A
:103AA3008B83E582458370F20233E674F712034D8C
:103AB300EAFEEBFFEE4F6056900345124726604E39
:103AC300888289837A007B00EE65827003EF6583C9
:103AD300600FAA82AB83123B14E5824583602F807B
:103AE300E7900345123B20687002EF698E828F8353
:103AF30070081234A89003458003125F5C1234B43B
:103B0300EEFAEFFB121E0AEEFAEFFB121912023461
:103B13001E123B1822123E948882898322123E9001
:103B2300EE22C082C0839003458004888289831279
:103B33004726600B888289831241D8EC4D70EC8A4A
:103B4300828B83E4F0A3F0E849600688828983804E
:103B53000390034512342E0233E674F712034D909B
:103B6300034580048A828B83123B9D4B60257E0034
:103B730080010E123BA250ECEE75F006A4FCADF0F2
:103B8300EA2CFCEB3DFDEC2410F582ED123BF270C8
:103B9300E180047A007B0002341E12503FEA2212B5
:103BA3003BFBEEC3982274F712034D7D0080010D99
:103BB300123BF7EDC3985034ED75F006A4FEA8F060
:103BC300E8FFEA2EFEEB3FFFEE2410F582EF123BF7
:103BD300F270DCED75F006A4FEE8FFEA2EFAEB3F87
:103BE300FBEA2411F582EB125B224CF002341E1225
:103BF3005B2E6922123BFB22126468EB3400F583CF
:103C0300E0F82274F612034D120D8A7A007B0080CD
:103C130025EAF8EBF9E875F006A4F8ACF075F006C0
:103C2300E9A42C125014126329A3E412510AF0A33D
:103C330012632F1264A6902258122B0440D37A00E9
:103C43007B00801C8A088B09740378081209E6122A
:103C53004AC8A374FEF0A304124EEAA3E41264A6B6
:103C63009004C7123CA540DC7A007B00801D8A08C3
:103C73008B09740378081209E6743F12579A740E7D
:103C8300125FE174FEF0A3041264A690225F123C5B
:103C9300A540DB902268E493900353F0123CAF02FB
:103CA30034BDE493F8C3EA98EB9400227CE87D03E7
:103CB3007A107B009003C2E0F91219C62274F01245
:103CC300034D74F51208E58A088B09890A8C0BE900
:103CD300A2E050147508FC7509FFA2E15005D2E477
:103CE300023D82D2E3023D821249877003A3E06959
:103CF30070057900023E4FAC0A7902AA08AB09129B
:103D03000D66E960EDE50AF50C780C1208277902D7
:103D13007CFE7DFFAA08AB09124702120851E96035
:103D230003023E4DE50AC2E5F50A9003B5E0705182
:103D3300E50AA2E6404B7403120ABFAC82AD83AA24
:103D430008AB09120B14E970321240238A0C8B0D55
:103D5300A80CA90DE8FEE9FFE8496025EE24020A54
:103D63000AEF122814601AEE2402FCEF3400FD74EB
:103D730003120ABFAA82AB831219F6E50AD2E5F54C
:103D83000A900348E0F50C900368E0F50EA3E0F514
:103D93000F780E1208237D017C00900348E0F9AAF6
:103DA3000EAB0F120D1E7402120851E9F89003486E
:103DB300E004F0E86003023E4DE50AA2E550047416
:103DC3000E80027406C0E07401120ABFD0E01254E0
:103DD3007C8A0E8B0FAE0EAF0FEE4F6069123E6DF5
:103DE300123E84888289837401F07478550AA31281
:103DF300646EE50C12646EA3E508F0E509123E5CFF
:103E0300E4F0E50AA2E5500F7403120ABFAC82ADD9
:103E130083E82406123E538E828F83A3A374FDF09E
:103E2300A374FFF0E50B6015902266E493F8E50BAD
:103E3300C3985009EE241312544FE50BF0EEFAEF3A
:103E4300FB120BB680067910800279C7740B804988
:103E5300FAE93400FB1219F62288828983A3A3A30B
:103E6300A3123E68221251E3A322EE2417125460D8
:103E73007401F0120EDAEE241A125460EAF0A3EB86
:103E830022F01264623400123E8E22F583123E94B5
:103E930022E0F8A3E0F922740D1208517F0802050D
:103EA3006574F612034D7A007B1012596A6008900C
:103EB30003D47401F0802990106DE064019010D058
:103EC3007006E0FC79018004E0FC79037A007B0052
:103ED300120C88902250123EE67A007B10123EF4B8
:103EE3000234BD123EEA22E493FC740193FD227B6B
:103EF300009003C2E0F91219C02274EC12034D8A38
:103F0300088B098C0C8D0D890E7414120ABF12488C
:103F1300E17416120ABFE0F510A3E0F511120F5277
:103F2300E960077AFF7BFF0240209010CFE0640234
:103F330060030240137900AA08AB09120D6CA90EA5
:103F4300120D608A128B13AE12AF13EE4F70030281
:103F53003FFB8E828F83A3A3A3A3A3E064018E827E
:103F63008F83A3A37069124BA08E828F83A3A3A315
:103F7300A3A3A3E054186043902264E4938E828F3A
:103F830083A3A3A3A3F0EA650C7003EB650D601490
:103F9300EA650A7003EB650B600AEA65107003EBD0
:103FA3006511701F7810120823AC0AAD0BAA0CAB75
:103FB3000D12104E740212085180089003671259B3
:103FC30054A3F074FE6A700374FF6B601D804EA3EC
:103FD300A3A3E0640360298E828F83A3A3A3A3A377
:103FE300E0640470057AFE023F288E828F83A3A3C8
:103FF300A3A3A3E0640270089003B4E0640270100A
:104003001240238B0BEA450B6006AA08AB09800D0F
:10401300AA08AB099003491239951204C5025F4AF5
:104023009003751247081210122274F712034DEA17
:10403300FEEBFF120B68E9700AEEFAEFFB120B744A
:10404300E96006EEFAEFFB80047AFE7BFF02341E82
:1040530074F012034D8A0A8B0B8C0E8D0F89097530
:104063000800120F52E9790060030241CAAA0AABA1
:104073000B120D6CA909120D608A0C8B0DAE0CAFDF
:104083000DEE4F60198E828F83A3A3A3A3A3E064D5
:104093000270559003B4E0640270030241C8AA0A97
:1040A300AB0B90034F1239951204C5120B7A8A0C8D
:1040B3008B0DA80CA90DE84970030241C8888289B9
:1040C30083A3A3A3A3A3E0A2E040030241C8750C0A
:1040D30001A2E150687901AC0AAD0BAA0EAB0F1235
:1040E3000CB8E970640241C88E828F83A3A3A3A393
:1040F300A3E064037005750C0280528E828F83A344
:10410300A3A3A3A3E0640160030241C89003751253
:1041130041D88E828F8312452D8A0C8B0DA80CA952
:104123000DE84960D190225DE493FA88828983E0A7
:10413300C39A50C2A3E060030241C880B988828950
:1041430083A3A3A3A3A3D2E1F0EE4F603A8E828FA1
:1041530083A3A3A3A3A3A3E05418602B7508018E24
:10416300828F83A3A3120665750CFE750DFF780C71
:104173001208237900AC0AAD0BAA0EAB0F120D7E09
:104183007404120851803E900368E0650E7004A326
:10419300E0650F7014902265E493FCA909AA0AABA9
:1041A3000B120C88750801801CA90CAC0AAD0BAA74
:1041B3000EAB0F120CB8E9700C750801A909AA0A15
:1041C300AB0B120D12A908023E9FE50C2415F582D4
:1041D300E50D125463124EC02274EA12034D74F0BB
:1041E3001208E58A0C8B0D8C088D097426120ABF00
:1041F300E0F514A3E0F5157512069003F5124726B2
:1042030060239003751241D8AA08AB0912103C8AA7
:10421300108B11EA4511600D8A828B83A3E0700530
:104223007900024515E50C241DF50EE50D3400F566
:104233000F850E82124712F51388828983A3A3A3E5
:10424300E0FA88828983A3A3A3A3E0F9EA2400FE0A
:10425300E439FFAA08AB09120D18850E82850F8376
:10426300124550E029F50BE50AA2E5500375120E3D
:104273007487550A70177418550A6418600FE50C93
:104283002417F582E50D125B22651260077901128E
:104293001846808C530A78C3EE94F8EF94FF501DB0
:1042A3007900EEFAEFFB12451F601288828983A31F
:1042B300A3A3A3A3A3E05418600302422378081224
:1042C30008237D00124543120851E9F8740368700E
:1042D30003024223E8600302438E7418550A7003F5
:1042E300024443E50AD2E0F50AA2E45004D2E1F520
:1042F3000AA90A124B9912451F605388828983A326
:10430300A3A3A3A3A3E05418604488828983A3A32F
:10431300A3A3A3E064017036E51045116030900358
:10432300751241D88882898312452D8A0E8B0FA876
:104333000EA90FE849601788828983A3E0600F857F
:104343001082851183A31256715003024223E50A9A
:10435300F50E780E120827124536120851E9702B14
:104363007C007D0085148285158374FFF0A3F0859E
:104373000C82850D83A3A3A3A3A3A3A3A3E060033C
:104383001241CDA90B124B99121AA48514828515DB
:1043930083E0F47003A3E0F460399003B4E06402B3
:1043A30070030242231248D2E0FAA3E012399112B9
:1043B30004C5EA65087003EB65096003024223EE56
:1043C300FAEF1239911204C5851482851583EAF038
:1043D300A3EBF078081208237D011245431208511C
:1043E300A90AEEFAEFFB120D6C8A088B09A808A93B
:1043F30009900368E0687003A3E06960030245065F
:10440300EEFAEFFB120B7A8A088B09A808A909E8D0
:1044130049606E88828983A3A3A3A3E06401600D2E
:1044230088828983A3A3A3A3E064027054851882BE
:10443300851983AC82AD83EEFAEFFB120B14805522
:10444300900361E0600FE50AF50E780E120827125B
:104453004536120851E50AF50E780E12082779023F
:104463007CFE7DFFEEFAEFFB124702120851E96072
:104473000302438E85148285158374FFF0A30243E0
:10448300D5120EDAEAFCEBFD851882851983AA8220
:10449300AB831219F6850C82850D83A3A3A3A3A373
:1044A300A3A3A3E06401700F1241CD7408120ABFE5
:1044B300AA82AB831219F61246DC1252E84430F595
:1044C3000878081208277401120ABF8582088583B9
:1044D300097808120823740B120ABF8582088583A2
:1044E300097808120823E513F508780812082779D4
:1044F30000EEFCEFFD124B99120CB2740612085138
:104503000242231246DC125452124550E50BF012BC
:104513000EF274101208517F0E020565120D608AA7
:104523000E8B0FA80EA90FE84922A3A312503F1226
:10453300103C227901AC08AD091250341247022213
:10454300AC0BA913125034120D1E7402221252F036
:10455300A3A3A3A32274F012034D74F01208E58AF7
:104563000C8B0DECFAEDFB750F089003F512472643
:10457300601412566A8A828B83E58245836007A39F
:10458300E070030246D71246DC3400124712F50BE3
:10459300888289831246E5E0FBEC2400FEE43BFFBE
:1045A30088828983A3A31246E5A3A3E0FBECF50865
:1045B300E43BF50988828983A3A3A3A3A3A3A3E070
:1045C300F50EE50AA2E45003750F10A2E550067438
:1045D30008250FF50F748F550A700FE50C2417F596
:1045E30082E50D125B22650F6008790112184602FD
:1045F30046D7530A707800E50AA2E450221246DC3B
:10460300125B222408FCA3E03400FD7408120ABFE5
:10461300AA82AB831219F67808E50AC2E4F50AE523
:104623000AA2E550281246DC125B2228F8A3E034E4
:1046330000F9E82408FCE93400FD85188285198314
:10464300AA82AB831219F6E50AC2E5F50AAC0EA9F4
:104653000BEEFAEFFB120D24E9F874036860759012
:104663000368E06E7003A3E06F605EE87054E50AD0
:10467300F50F780F1208271246F3120851E9705408
:10468300780A1208277401120ABF85820C85830DEC
:10469300780C120823740B120ABF85820C85830DD4
:1046A300780C120823E50BF50A780A120827A90EDD
:1046B300AC08AD09EEFAEFFB120CB2740612085106
:1046C3008012740468700D80B7780A1208271246A6
:1046D300F31208517410023E9CE50C241DF582E58B
:1046E3000D22A3A3A3E0FC88828983A3A3A3A3220F
:1046F30079011248D9125463124708124702221251
:104703000CDC740122E0FCA3E0FDAA08AB0922F54E
:1047130083123B18A3E0F50A88828983A3A3E022CE
:1047230090033912509B2274E812034D74F512085A
:10473300E5EAFEEBFF8C088D0989147423120ABF86
:10474300E0F50F7424120ABFE0F512A3E0F5137429
:1047530026120ABFE0F516A3E0F5177428120ABF64
:10476300E0F50EA90F120D2A8A108B117401120A9B
:10477300BF7408F0E50EA2E450037410F0E50EA236
:10478300E55004E02408F0851882851983AA82ABDA
:1047930083120F3A8A0C8B0DEA450D70030248B958
:1047A300EA2417F582EB1248CB120EDAE50C241A31
:1047B300F582E50D12545212342E7403120ABFAC63
:1047C30082AD83AA10AB11120B14E9601D1248C30A
:1047D3007403120ABFA882A983E50C2418F582E5A5
:1047E3000D125452E8F0A3E98024E50EA2E4501F11
:1047F300E5106E7003E5116F70151248C3E50C24C4
:1048030018F582E50D125452E512F0A3E513F012E8
:1048130048D21248E1850A82F5837402F0A3E50EBB
:104823001248E9E50FF0EE850A82850B83A3A3A363
:10483300F0EF850A82850B83A3A3A3A31248E9A300
:10484300A3A3E508F0E509850A82850B83A3A3A347
:10485300A3A3A3F0AA10AB11120D18E92514850A1E
:1048630082850B83A3A3A3A3A3A3A3F0750800E5E9
:104873000EA2E45011AC12AD13E50A2408FAE50BBD
:10488300123E55750808E50EA2E55014AC16AD1797
:10489300E50A2508F8E50B3400F9E82408123E532D
:1048A300850C82850D83A3A3E510F0A3E511F0AA7F
:1048B3000CAB0D120BB6740B1208517F1002056579
:1048C300E50C2416F582E50D1254637401F02212EF
:1048D30048D912546322E50C126469E50D22E0F510
:1048E3000AA3E0F50B22F0850A82850B83A3A3229A
:1048F30074F212034D8A088B09ECFEEDFF890A79E5
:10490300001249877003A3E069700479018073750D
:104913000B01900368E065087004A3E06509601F5C
:10492300750B00780B120827A90AEEFCEFFDAA0805
:10493300AB09120F8E7401120851E9F50B8041790E
:1049430000EEFAEFFB120D60EA4B602B8A828B8339
:10495300A3A3A3A3A3A3E05418601C7508FE7509C1
:10496300FF78081208238A828B83A3A31206651299
:10497300627E12085180097901EEFAEFFB120C3ABC
:10498300A90B8014120D6C8A0C8B0DA80CA90D9029
:104993000368E068221208517F0602056574F41269
:1049A300034D75088775090C7A10125F868B0BEA25
:1049B300450B7003123CAF900353E014F0700C905E
:1049C3002268E493900353F0120D787E007F0080F9
:1049D3006C850882850983A3A3A3A3E06059F460CF
:1049E30056E5082404F582E50912594E70498508F5
:1049F30082850983A3A3A3A3A3E0640370197902A7
:104A03008508828509831241D8850882850983A395
:104A1300A3124BA0120CB8850882850983A3A3A314
:104A2300A3A3E06401601085088285098374FEF006
:104A3300A304124AFAE4F012302B122E7D90225670
:104A43001260E2408C7E007F008039120E808E0857
:104A53008F09740378081209E674FF2508FC740DA6
:104A63003509FD7AC47B0C120E6EEA4B70DD8E089D
:104A73008F09740378081209E6124AC8126329E4FD
:104A8300F012302B9004C7E493F8C3EE98EF940030
:104A9300501B8E088F09740378081209E6124AD056
:104AA300E82407F582E912594E70D680A17E007F73
:104AB30000800A124ADB600214F012302B1260DF0E
:104AC30040F102365E124AD0888289832274FF2520
:104AD30008F8740D3509F922EEF8EFF9E875F006D8
:104AE300A4F8AAF075F006E9A42AF9749F28F582C0
:104AF300740D39F583E022124B01A3A3A322F085A1
:104B03000882850983A3A32274F712034D74E1126B
:104B130008E5ECFEEDFF750800EE4F60728A828BAC
:104B230083E0241C12597F12472660638A828B8399
:104B3300124BA0851882851983AC82AD83EA241BAE
:104B4300F582EB125850EA241CF582EB124B9C12AF
:104B53000EC2740B120ABF124BA47003A3E0697058
:104B63002E7402120ABFE064017024741D120ABF7E
:104B7300123995E064017017741D120ABF12399738
:104B8300A3A3E0F88E828F83E0687003750801A900
:104B930008741F02341B1248D93400F58312503FA6
:104BA300221227D2E0682274F412034DE9702479AB
:104BB3000090034D1239951204C58A0A8B0BAE0A75
:104BC300AF0B74FE6E700374FF6F701A902260E473
:104BD300936013790190034D1239951204C58A0A23
:104BE3008B0BAE0AAF0B120EFE02319374F6120357
:104BF3004D74F31208E51218828A088B09AE08AFC8
:104C030009900368E06E7003A3E06F60E9120EE69B
:104C1300EA6E7002EB6F60DEEEFAEFFB120F52E901
:104C230070D4EE4F60D0851882851983E4F00412A6
:104C33000ABFEEF0A3EF124C52E970BA74FE6E7025
:104C43000374FF6F60B0EEFAEFFB740D0234BA1217
:104C5300353F120B2C22C082C083120EFE0233E6B4
:104C63007F0A02056574F212034DEAFEEBFF8C0A1C
:104C73008D0B8908740E120ABFE0F50974FC6E707F
:104C83000374FF6F7005790002499B7900120D6C64
:104C93008A0C8B0DAE0CAF0D900368E06E7003A30E
:104CA300E06F7006E509A2E650DCA90912616C7099
:104CB3006179007AFE7BFF12616C70567418550996
:104CC3007003024D9F7800790080031229CC902253
:104CD300561229C34003024D9FE8FAE9FBEA75F037
:104CE30007A4FAACF075F007EBA42CFB748D2AF53E
:104CF30082740C3BF583E0541870D0E875F007A478
:104D0300F8AAF075F007E9A42AF9748728F8740C57
:104D130039F988828983A3A3A3A3A3A3E0541860CA
:104D230009741855097003024C8988828983EEF04F
:104D3300A3EFF074FE650A700474FF650B60031241
:104D43004EC688828983A3A3A3A3A3A3E509F0A2E4
:104D5300E0500D88828983A3A3A3A3A3A3D2E2F087
:104D63007401650888828983A3A3A3A3A3703874FD
:104D730001124EEAE054186028902264E49388827A
:104D83008983A3A3A3A3124EB412103C8B0DEA454F
:104D93000D6003024C897800790080397902024C56
:104DA3008B900367E080D7E064017003024C89882D
:104DB300828983A3A3A3A3A3A3E05418600790222B
:104DC30064E4938004900366E0123E5CE508F0021D
:104DD3004C891229CC90225AE493FAC3E89AE994B5
:104DE300004003024C897A007B00804BEAFCEBFD18
:104DF300EC75F007A4FCAEF075F007EDA42EFD747E
:104E0300892CF582740C3DF58312546BE8FCE9FDA3
:104E1300EC75F017A4FC85F00975F017EDA42509CE
:104E2300FD74172CF582740B3DF583E06E7003A3BC
:104E3300E06F609E122F00902256122E8D40AD120D
:104E43003EE6EC6A7002ED6B7088E875F017A4F823
:104E5300AAF075F017E9A42AF9741728FE740B3920
:104E6300FF7C177D007900EEFAEFFB1218768E8235
:104E73008F83124ECC900375124EA6A3A3A3A3A3B4
:104E8300A3E8F0A3E9124EAC7401F0EE240E125421
:104E93004F7401124ED41201FDEE240D12544FE84B
:104EA300024DD11233FEA3A322F0EE240F1254605D
:104EB30022F0124EBDAA0AAB0B22900375E0FCA3AD
:104EC300E0FD2288828983A3A3E50AF0A3E50BF022
:104ED30022F0124ED92290225DE4932401F8E434A7
:104EE30000F97A027B0022123E68A32274ED1203BA
:104EF3004D8A088B09890E12501D40057905024F12
:104F0300EB121AECAA08AB091250EF902258124F79
:104F1300EE650A7003E9650B70077AFE7BFF12509A
:104F2300EF902258E4124FF6E50A98E50B994003F7
:104F3300024FE9124FFA6012E50A75F006A4F875FC
:104F4300F006E50B125045121912E50E6018E50A3A
:104F530075F006A4F8AAF075F006E50B125071700F
:104F63001A7901024FEBE50A75F006A4F8AAF07569
:104F7300F006E50B125052E4F0A3F0E50A75F006D3
:104F8300A4F8AAF075F006E50B125012A31252FE14
:104F930088828983A3AA82AB831250608A828B831F
:104FA300E0603F124FFA603A8E108F11751200784D
:104FB3001012081FE50EC333FCE433FDE50A75F058
:104FC30006A4F50AA8F075F006E50BA428F50B7402
:104FD300A3250AF582740D350B124B9E122E9E12D9
:104FE3000851790080027907026182122B25E82299
:104FF30090224A125B0922E50A75F006A4F8AAF08A
:1050030075F006E50B12504DF8A3E0F9E84922A428
:105013002A1251A688828983A322ECFEEDFF9022F7
:105023005BE493F8E9C39822F58312503F121912F7
:1050330022E50C126469E50D3400F583E0FAA3E080
:10504300FB2212504DFAA3E0FB22125052E022A49D
:105053002AF974A328F582740D39F58322E50EF03D
:105063009010D112506A22E088828983F022125173
:10507300CAF50CE93400F50DE50EC333FAE433FB4E
:1050830012190C850C82850D83EAF0A3EBF0850CD5
:1050930082850D8312509B22123E94E8492274F4B8
:1050A30012034DECFEEDFF740C120ABF1234A888F4
:1050B3000889091250EFAC0AAD0BECF8EDF9902218
:1050C300581250F75021E875F006A4F8AAF075F0CD
:1050D30006E9125012E08E828F8312510A12510098
:1050E3001234B479008002790402365E120CEE8A1F
:1050F3000A8B0B22122E96C3EC9AED9B22123E9042
:10510300850882850983221251DF2274F612034D2A
:105113007E007F008028EEF8EFF9E875F006A4F82A
:10512300ACF075F006E9A42CF974A128F582740D8E
:10513300125D8D6A7003A3E06B605712302B12600F
:10514300DF40D31260DA7002E96F704674FE6A7052
:105153000374FF6B703C7E007F00800312302B12C0
:1051630060DF502E124ADB70F3EEF8EFF9E875F0CA
:1051730006A4F812519C1251D160171251B8F8E9E4
:105183001251B0888212502B850882850983E4F07E
:10519300A3F0EEFAEFFB0234BD75F006E91251A459
:1051A30022A42AF9749F28F8740D39F9223400F9DE
:1051B3008808890922EEF8EFF9E875F006A4F87576
:1051C300F006E91251CA221251A4E8240422A3A32F
:1051D30074FE1251DC12509B22F0A3041251E322FD
:1051E300F088828983A3A3A3A32274F612034DEA52
:1051F300241DF582EB1252E8F9604BEA241DF58277
:10520300EB125B222402FCA3E03400FD1250214088
:10521300030252DB780080298C828D83E0F508A39A
:10522300E0FFE5082400E43FF509E833FEE433FF3B
:1052330074E72EF582740D3FF5831252FE1252DE8F
:1052430008E8C39940D28A828B83A3A3A3A3A3A311
:10525300A3A3A31241D8900368E06C7003A3E06D8D
:10526300700F7CE77D0D12273B124B9C120CE280E2
:1052730067EA2411F582EB125B22605CFC74FF2C5D
:10528300F075080178081208277508E775090D7885
:1052930008120823E9F5087808120827EA2412F50A
:1052A30082EB125B22F5087808120827EA2415F529
:1052B30082EB125452120665ECF912273B1241D5C8
:1052C3008A828B83A3A3A3A3A3A3A3A3A3124BA009
:1052D300120CFA74071208510234BDEC24020C0CB0
:1052E300ED3400FD221254631252F0E022E0F8A3E1
:1052F300E0F5838882A32288828983E508F0A3E509
:1053030009F02274EA12034D74FD1208E58A148B26
:10531300158C0E8D0F890D7419120ABF12546B74FC
:105323001B120ABFE0F511741C120ABFE0F50C74DE
:105333001D120ABF1248E1741F120ABFE0F5106084
:1053430008E50CC333240480027402C0E074011224
:105353000ABFD0E012547C8A088B09EA450970031E
:105363000254478A828B83A3A3E514F0A3E51512A5
:105373005F75E50EF0A3E50FF0EA2413F582EB1257
:105383005452E50DF0EA2414F582EB125452E51160
:10539300F0EA2417F582EB125B2264017040120ECF
:1053A300E08A0E8B0FA80EA90F850882850983A3B7
:1053B300A3A3A3E0687003A3E0696022EE4F60112A
:1053C300E508241AF582E509125452EEF0A3EF80A2
:1053D3000CE5082417F582E509125452E4F012543F
:1053E3005612546B8E828F837405F0A3E5107004FC
:1053F300E50C80487401250C1254757A00802885C9
:105403000A82850B83E0125471850A82850B83A37C
:10541300E08E828F83F0E50A2402F50AE50B34005F
:10542300F50BA30EAF830AEAC3950C40D2120EE02C
:10543300EA125471120EE0EB8E828F83F0AA08AB4E
:1054430009120BB67403024517EE240CF582EF1212
:1054530054632212274C12546322EE240BF582EF7D
:105463003400F58322900334E0FEA3E0FF228E8212
:105473008F83F0A3AE82AF832212353F120F3A22FD
:10548300C082C083E9C333FCE433FDEA2CFAEB3D6D
:10549300FBEA24FEF582EB34FF124B9E0233E674E3
:1054A300F212034D89098A0A12501D4004790080C3
:1054B3004075080080020508E508C39509502AE5F0
:1054C30008C333F8E433F9EE28F582EF39F583C0E6
:1054D30082C083120EE08A0C8B0DD083D082E065EC
:1054E3000C7004A3E0650D70CDE50A650870BE7904
:1054F3000102499B74F012034D74F31208E58A0804
:105503008B098C0A8D0B890C750D00120F52E979EA
:105513000060030255F9AA08AB09120D6CA90C121D
:105523000D608A0E8B0FAE0EAF0FEE4F7003025558
:10553300F78E828F83A3A3A3A3A3A3E0A2E24003D6
:105543000255F7120EE0EA650A7003EB650B701162
:10555300780D120827E4F50EF50F780E1208238054
:1055630044AA0AAB0B120B6EE964017068851882BA
:105573008519837404F07401120ABF124ECC851886
:1055830082851983AA82AB83120B2CE964017045CF
:10559300750D01780D120827E4F50EF50F780E123C
:1055A3000823750D00780D120827780D120827744B
:1055B30008120ABF85820E85830F780E1208239086
:1055C3002266E493F9AC0AAD0BAA08AB09120CFAF4
:1055D30074071208518E828F83A3A3A3A3A3A3E00E
:1055E300A2E1400D8E828F83A3A3A3A3A3A3C2E250
:1055F300F0750D01A90D023E9A74F612034DE9FEF2
:105603007900120D6CEEF9120D608A088B09A80857
:10561300A909E84960061264B0F9800279040234EA
:10562300BD74F612034D7E0790035CE0703412568E
:105633006A8A088B09A808A909E8496025900361CB
:10564300E0640188828983A3A3700B125671888258
:1056530089835001A3A3E0F912105AE9FEEE700208
:105663007E07EEF90234BD124EBD12103C22E0FA61
:1056730088828983A3E0C39A2274EE12034DEAFE63
:10568300EBFF890A8C0C8D0B7412120ABF1233F2D2
:105693001257461250245051890E750F0074037827
:1056A3000E1209E67405250EF582740E350FF58387
:1056B300E0F8E50CC398502DE50B602475110074D8
:1056C3000378101209E674FF2510F8740D3511F9EB
:1056D30088828983A3A3A3A3A3A3E50C125750F045
:1056E3007900024C63790380F979007AFE7BFF121B
:1056F3005746E49365107004790280E6E50B60E099
:10570300890E750F007403780E1209E674FF250ED7
:10571300F8740D350FF988828983A3EEF0A3EF1295
:105723005750124EEAE50C123E6474FF12632FE5E4
:105733000AF0900366E088828983A3A3A3A3A3A3AB
:10574300A3809C120D5AE9F5109004C722126472CB
:10575300A3E508F0A3E5092274F612034DECFF124A
:105763000D5A9004C71250245027890875090074F4
:105773000378081209E6740412579A740E125FE153
:10578300E0F8EFC3985006EFF079008006790380C4
:105793000279040234BDEA2508F5822274F4120367
:1057A3004DEAFEEBFF120D5AE9F50A9004C71250B9
:1057B300245019750B007403780A1209E674022544
:1057C3000AF582740E350B124B9E801890034B1210
:1057D3004726600CEEFAEFFB1239981204C58004D9
:1057E3007AFE7BFF02365E74F612034D8A828B8348
:1057F300A3A3A3A3A3E4F0F880010890225FE4939A
:10580300F9E8C399501E88081258488C828D83A3E7
:10581300A3A3A3A3A3A3A3E06970DFECFAEDFB1298
:105823000E86801EE4936870198C828D83A3A3A3D4
:10583300A3A3A3A3A3A37406F07A008C828D83127F
:1058430059730234BD74872508F582740E125B2EDA
:10585300F92274F412034DEAFEEBFF8E828F83A3C9
:10586300A3E01412598AA3E0F9120E628A088B0985
:10587300EA4509700302594B8E828F83A3A3E0701C
:10588300358A828B83A3A3A3A3A3A3A3A3A3E064C7
:10589300028A828B83A3A3A3A3A3A3A3A3A36010BE
:1058A3007406F07AF08508828B8312597302594B80
:1058B3007406F002594B8E828F83A3A3A3A3A3A3E1
:1058C300E060738E828F83A3A3A3A3E0607AEE24A8
:1058D30003F582EF12594E706F900355125954120B
:1058E300598AE014125F6CE06403705C8E828F83CC
:1058F300A3A3A3A3E0700DAC08AD09EEFAEFFB126E
:105903000D3080448A828B83A3A3A3A3A3A3A3A361
:10591300A37404F0121882EA540F048508828509DF
:1059230083A3A3A3A3F0A3E4F07A20FB12596A7024
:105933001712595D80128A828B83A3A3A3A3A3A307
:10594300A3A3A3E0640360AF02365E125B2E14F0E0
:1059530022E08E828F83A3A3A3227A207B0090036D
:10596300C2E0F91218C422125F888B09EA450922A2
:10597300E0240C12597FE0F9120DA822F8A3E034B9
:1059830000F9888289832212598FA32212349AA3A1
:10599300A3A32274F612034D79007E0080258E089E
:1059A300750900740378081209E6743F2508FA7430
:1059B3000E3509FB8A828B83A3A3E06005120D36A3
:1059C30079010E90225FE493F8EEC39840D0E9A2E8
:1059D300E07A407B009003C2E0F950151219D28B94
:1059E30009EA4509700E7C647D007A40123CB5805B
:1059F300031219CC0234BD74F412034DECFEEDFF17
:105A030075083F75090E7C008045850882850983EA
:105A1300A3A3A3A3A3A3A3E0F8EA2412F582EB12A2
:105A23005B2268701F8508828509831234A8125B84
:105A330026687003A3E069700B850882850983A338
:105A4300A3E070200CE5082408F8E5091251B09092
:105A5300225FE493F8ECC39840B0E4936C7005794B
:105A63000002365E850882850983A3A3A3A3A3A3AB
:105A7300E07004790180EA12617A1210128B0BEA4A
:105A8300450B600F850882850983A3A3A3A3A3A362
:105A9300E014F07C0080010C8C0A125AFC5020ECBC
:105AA300125B3460F21230436E7003A3E06F70E751
:105AB300850882850983A3A3A3A3A3A3E014F0907D
:105AC300225AE493F890224AE49328F8A3E4933407
:105AD30000F9850882850983A3A3A3A3A3A3E0FAFE
:105AE300C3E89AE99400508B850882850983A3A3B0
:105AF300A3A3A3A3E4F0025A7690224A125B08E51B
:105B03000A98E49922E4122B26C322EE75F006A428
:105B1300FCADF0EA2CFCEB3DFDEC2411F582ED121B
:105B23005B2E22126468EB125B2E223400F583E0B5
