:020000040000FA
:06000000020F5D02053D48
:03002B00020C5470
:03003300020B8934
:03004300020C2C80
:030053000204782C
:03006B00020B6F16
:100083000204C9010101FF050301291529152915D9
:100093002915DF13D91329158022000000004423FA
:1000A300000000000C0000000C0001965118000233
:1000B300020612FFFF0101010100ED0D0000003EE9
:1000C3000EE803020200080000050207051E0205F0
:1000D3001E0A03B80B020102330302120F6D601DE7
:1000E300120F7C7005191919801A120E24701F1231
:1000F3000E38C37003E66733191919400718181827
:100103002208080874FFF618F618F618F622120EDD
:1001130038601712100A702192F0121013701950E0
:100123001720F014080808090909E7F61819E7F673
:100133001819E7F61819E7F62212101360E6E869B2
:10014300701F0808E62480F608E436F618547FB4D6
:100153007F0CE654806007F6E418F618F6221818A8
:1001630022E9C6CC08C6CD08C6CE08C6CFC0E0E893
:10017300C0E0EAC0E0EBC0E009E9F809E7FA09E703
:10018300FBE6F918E6F8C3EC98ED99EE9AEBC2E7B3
:10019300F5F0EFC2E795F0500E600CEBCFFBEACE23
:1001A300FAE9CDF9E8CCF8EAA2E7D2E7FAEB33FBB8
:1001B30013F5F0EEA2E7D2E7FEEF33FFC5F013A28B
:1001C300E730E601B313C5F0C3C0E0C0F07F00C35E
:1001D3009BFB605E9418600F401D14601AD0E023EF
:1001E300F9D0E0F80202BF8AF0E9486003D2F0E4F4
:1001F300AFF0FAF9F8803BEB30E40D89F0EA6003E5
:10020300D2F0E4AFF0F9CAF8EB30E30D88F0EF6019
:1002130002D2F0AFF0E4CAC9F8EB54076014FBC391
:10022300EA13FAE913F9E813F8EF135002D2E0FFE7
:10023300DBEDD0E0C0E030E739C3E49FFFF5F0EC3D
:1002430098FC42F0ED99FD42F0EE9AFE42F0D0E0C8
:10025300F9D0E0F8E5F0607AE923F9EE20E742D837
:10026300028067C3EF33FFEC33FCED33FDEE33FE67
:1002730080EAEC28FCED39FDEE3AFED0E023F9D01C
:10028300E0F84002801BC3EE13FEED13FDEC13FCFC
:10029300EF135002D2E0FF08B800067F7F74FF809F
:1002A3002EEF3350178CF020F00260100CBC000CC2
:1002B3000DBD00080EBE000408E860DFE933E81353
:1002C300FFEE2313FE4F4D4C8008E95480FFE4FEFC
:1002D300FDFCEE33EF33F47004FCFD7E80D0E0FBD5
:1002E300D0E0FAD0E0F8D0E0CFC618CEC618CDC61D
:1002F30018CCC6F92200120F6D604F120F7C6012EA
:10030300E7548066F6120E24701112100A703B092E
:100313000909F4F618F618F618F622120E387015B5
:1003230012101308080860EAE6447FF6187680186E
:10033300E4F618F622121013601612100A7012E473
:10034300F608F608F608E65480F60909091818189D
:1003530022EAC0E0EBC0E0ECC0E0EDC0E0E687F0ED
:10036300A4FBACF008E687F0A42CFCE435F0FA1803
:1003730009E687F0A42C4B60027401CA35F0FCE453
:1003830033FB09E687F0D2F7A42CCB35F0FC190830
:10039300E687F0A42BCC35F0FBE433FD0819E687A0
:1003A300F0D2E7A42C4ACB35F0CD3400FC09E68724
:1003B300F0D2E7A42DCC35F0FDE433FA0918E68733
:1003C300F0D2F7A42CCD35F0CA3400FC08E687F050
:1003D300D2E7D2F7A42ACC35F07A7E20E70B0ACBFA
:1003E30033CBCD33CDCC33CC33CB3350147004ED7E
:1003F30030E00ED2F1E4CD3DCDCC3CCC3B5005DA20
:1004030005C2F1EB547FC63308E63392F0FBE733C2
:1004130009E733C39A502D2B70190C0D4C4D7015F1
:100423001806E608C333700D20F10AA2F013F6E4B0
:1004330018800B4024E4F630F002768018F618F6A4
:1004430018F68024D33B14501074FFA2F013F6184F
:100453007680E418F618F6800FA2F013F618E63348
:1004630003F618ECF618EDF6D0E0FDD0E0FCD0E092
:10047300FBD0E0FA22C0E074F2120858A2AFE433D2
:10048300FED2AF85A708AFA1EF550854106006123E
:10049300192B75A1EFEF550854086008121931752F
:1004A300A1F78013EFA2E092F0E508A2E082F050FA
:1004B300061219F175A1FE751A00EEF8EEA2E0928C
:1004C300AF7F01020914C0E074F2120858A2AFE42E
:1004D30033FFD2AF9061A4E0FE759B00E5915E54BB
:1004E3000860087591F71219858026E5915E54100E
:1004F30060087591EF12198B8017E591A2E092F0D5
:10050300EEA2E082F0500A9061A4E0C2E0F0121A79
:10051300E79061A3E0FEE5E95E5404600E121ABDA4
:1005230075E9FB906193E0A2E640F2751A00EFF8DB
:10053300EFA2E092AF7F01020914C0E074F2120847
:1005430058A2AFE433FED2AF9061A5E0FFE5BF5FF1
:100553005404600675BFFB121AFF751A00EEF8EE1D
:10056300A2E092AF7F01020914C3E498F8E499F979
:100573001205AD8026C3E49AFAE49BFBE920E7E980
:100583001205ADE498F8E499F922C3E498F8E499E4
:10059300F91205ADE498F8E499F9C3E49AFAE49BF7
:1005A300FB22EB20E7CFE920E7E0B90010BB00080E
:1005B300E88AF084F8AAF022E4FBC8FA22EB70225E
:1005C3007B10C833C8C933C9335007C39AC3DBF29E
:1005D30080069A50012ADBEAC833F4C8C933F4C948
:1005E300FA2275F008E4C833C8C933C933C99AC9B4
:1005F3009B5004C92AC93BD5F0ECFBC833F4C8E4CB
:10060300C9FA2212064620F01430E72B74FFFCFBD4
:10061300FA747F8022E4FCFBFA7480801AB48008A9
:10062300BC00F2BB00EF800F50EBF9E4C39AFAE48D
:100633009BFBE49CFCE499C6CC18C6CB18C6CA182D
:10064300C6F922E4C9C608CAC608CBC6D333030811
:10065300CCC63392F0C3947F402E94184019C9B985
:100663000704CACBCC225025C309CA33CACB33CB28
:10067300CC33CC33D9F422F4600DC9CCC313CB13E0
:10068300CBCA13CAD9F6CC22E4FCFBFA2214FCFB36
:10069300FA22080808EAC0E0EBC0E086F0E7A4FA13
:1006A300180986F0E7A42AFA180986F0E7A42AFABB
:1006B300180986F0E7A42AFA1986F0E7A4FBE5F007
:1006C3002AFA190886F0E7A42BFBE5F03AFA190891
:1006D30086F0E7A42BFBE5F03AFA18180986F0E751
:1006E300A4C5F02BFBE43AFA1908E7C5F0C6A42623
:1006F300F6E5F03BFBE43AFA1886F0E7A4F6E5F0FA
:100703000826F6E43B08F6E43A08F6D0E0FBD0E02E
:10071300FA22E4CFC0E0E4CEC0E0E4CDC0E0E4CC14
:10072300C0E075F020E626F608E633F608E633F671
:1007330008E633F6181818EC33FCED33FDEE33FE00
:10074300EF33FFC3EC9709ED9709EE9709EF97197C
:100753001919400FFFEC97FC09ED97FD09EE97FE81
:10076300191906D5F0BFECF709EDF709EEF709EF14
:10077300F7191919D0E0FCD0E0FDD0E0FED0E0FF7E
:10078300222518C582C0E0E51934FFC583C0E0E522
:1007930018C3958224F810AF0885831985821880C1
:1007A30008858319858218D2AFCEF0A3E520F0A384
:1007B3007808E608F0A3DEFAEFF0A3E58124FAF85F
:1007C300E608F0A3E608F0A3E608F0A30808E608A5
:1007D300F0A3E608F0A315811581D0E0FED0E0F880
:1007E300158115811581E8C0E0EEC0E022120FF5F6
:1007F300B90003020842E490030178B5790C800242
:10080300F0A3D8FCD9FA781A9000867A01BA0002CC
:100813008007E493A3F608DAF97AB57B0E90008794
:10082300785879018015E493A3AD82AE838A828BD5
:1008330083F0A3AA82AB838D828E83D8E9D9E7752F
:1008430082547583C37403120CFD7582E975832189
:100853007400120CFDC0D02518C582C0E0E5193420
:10086300FFC583C0E0E518C3958224F310AF088564
:1008730083198582188008858319858218D2AFC8A9
:10088300F0A3E9F0A3EAF0A3EBF0A37908E709F0FA
:10089300A3D8FAECF0A3EDF0A3EEF0A3EFF0A3D00E
:1008A300E0F0A3D0E0F0A3D0E0F0A3E520F0A3E5CF
:1008B300F0F0A322E9799EC608CAC608CBC608CCC5
:1008C300C6C370207996CACBCC7019798ECBCC7005
:1008D300137986CC700EF9802ACA33CACB33CBCCBA
:1008E30033CC331930E7F2CCCBCA3350147004EA5B
:1008F30030E00DE4CA3ACACB3BCBCC3CCC50020926
:10090300C3E913C6CC182313C6CB18C6CA18C6F935
:1009130022851983851882E0C0E0A3E0F9A3E0FAF9
:10092300A3E0FBA37808E0F608A3DFFAE0FCA3E06A
:10093300FDA3E0FEA3E0FFA3E0C0E0A3E0C0E0A3CB
:10094300E0F5D0A3E0F520A3E0A3F5F010AF088510
:1009530083198582188008858319858218D2AFD0C0
:1009630082D083D0E0F8D0E03275F0108E218F2250
:10097300858226858325851882851983E0CEA3E0A9
:10098300CF852682852583EBC9EAC8EDCBECCAC3A4
:10099300E833C8E933C9EA33CAEB33CBC3EA9EF57C
:1009A30024EB9FF523B35004AB23AA24EC33CCED03
:1009B30033CDD5F0DAAE21AF2222120F6D601C12B7
:1009C3000F7C6017121013700712100A7001D322E4
:1009D300C0D012100A7006D0D0B322C32233D0D0B5
:1009E300501430E0F6C3E7960809E7960809E7963E
:1009F3000809E796B32220E0D5E6970809E69708A9
:100A030009E6970809E697B322D083D082ECC0E0C9
:100A1300EDC0E0E493A3FCE493A3FDED4C600D1261
:100A23000B30EC24FFFCED34FFFD80EFE493A3FCDB
:100A3300E493A3FDED4C600D120C01EC24FFFCEDDF
:100A430034FFFD80EFD0E0FDD0E0FCE493A3C0E0F1
:100A5300E493C0E022120F6D601B120F7C6016122C
:100A63001013700712100A600CB322C0D012100AC0
:100A73007005D0D022C32233D0D0501330E0EBC363
:100A8300E7960809E7960809E7960809E7962220FA
:100A9300E0E4E6970809E6970809E6970809E69768
:100AA30022D083D082E9C0E0E493A3C386F0C5F0EB
:100AB30095F0F908E493A386F0C5F095F0700BE484
:100AC30093A3C3994005E9048002A3E475F002A44B
:100AD3002582F582E5F03583F583D0E0F9E493A32D
:100AE300C0E0E493C0E022851983851882E0A3FE69
:100AF300E0A3F5207808E0A3F608DFFAE0A3FFE01F
:100B0300A3C0E0E0A3C0E0E0A3C0E0E0A3C0E0E056
:100B1300A3C0E010AF0885821885831980088582F9
:100B230018858319D2AFD083D082020D03C0E0C3EE
:100B3300E49396087401939618400FE49366700843
:100B430008740193661870007019A3A3C3E4939605
:100B5300087401939618A3A3400DD0E0D0E0D0E031
:100B6300020A48A3A3A3A3A3A3D0E022C0E074F284
:100B7300120858E589A2E1500312177B758900C258
:100B8300C57F01020914C0E074F2120858E58BA274
:100B9300E0500312177B758B00C2E87F0102091432
:100BA3007404800474028000CCC0E0EDC0E0E5185A
:100BB300C39CCCAD1950011D10AF068C188D198044
:100BC300068C188D19D2AF120C9ED0E0FDD0E0FC3C
:100BD3002274028000CCC0E0EDC0E0E518C39CCCD9
:100BE300AD1950011D10AF068C188D1980068C1895
:100BF3008D19D2AF120C7CD0E0FDD0E0FC22C0E016
:100C0300C0F088F0E4936670080874019366187066
:100C130000A8F0A3A3700BD0F0D0E0D0E0D0E002A6
:100C23000A48A3A3D0F0D0E022C0E074F21208581F
:100C3300A2AFE433FED2AFC2C0E5D1A2E4500312A7
:100C43001841751A00EEF8EEA2E092AF7F01020997
:100C530014C0E0C0D0E8C0E0E9C0E0A2AFE433F8DC
:100C6300D2AFC2C7751A00E8F9E8A2E092AFD0E0AC
:100C7300F9D0E0F8D0D0D0E032CAC0E0E493A3C505
:100C830082CCC582C583CDC583F0A3C582CCC58282
:100C9300C583CDC583DAE5D0E0CA22CAC0E0E0A3AC
:100CA300C582CCC582C583CDC583F0A3C582CCC51F
:100CB30082C583CDC583DAE6D0E0CA22700908086D
:100CC30008226016181818C6C333C608C633C608E8
:100CD300C633C608C633C6D5E0EA22C008C3E096C9
:100CE300F50808A3E096420808A3E096420808A383
:100CF300E09645087001D3D00822C09FF59FE473A6
:100D0300D09F22D083D082C09FE493C0E07401932C
:100D1300C0E0740293F59F222518F58210AF08F501
:100D230018400C15198008F51840021519D2AF8523
:100D33001983227404800A74038006740280027487
:100D430001C0E0F404120D1BD0E0120FB82200C062
:100D5300D0251810AF08F518500C05198008F518A0
:100D630050020519D2AFD0D022BB0102E722C082C4
:100D7300C08389828A83BB0003E08002E493D0832B
:100D8300D082226016080808C6C313C618C613C645
:100D930018C613C618C613C6D5E0EA222518F8E408
:100DA3003519F9222518FAE43519FB222518FCE434
:100DB3003519FD22C3E0C696F608A3E0C696F608E9
:100DC300A3E0C696F608A3E0C696F622251810AF50
:100DD30008F518400C15198008F51840021519D2AA
:100DE300AF22E76670100809E766700A0809E7662C
:100DF30070040809E76622E066701008A3E06670D5
:100E03000A08A3E066700408A3E06622C3E096081C
:100E1300A3E09608A3E09608A3E096A2D265D03398
:100E230022181818E60846087009E626087005E631
:100E330033F4220822191919E70947097009E7272A
:100E4300097005E733F4220922C3E697F60809E699
:100E530097F60809E697F60809E697F622C3E0969F
:100E6300F008A3E096F008A3E096F008A3E096F05C
:100E730022E026F008A3E036F008A3E036F008A34A
:100E8300E036F022E026F608A3E036F608A3E036C3
:100E9300F608A3E036F622E627F60809E637F60851
:100EA30009E637F60809E637F622700422600D18C2
:100EB300C6C333C608C633C6D5E0F41822E056F6D7
:100EC30008A3E056F608A3E056F608A3E056F62278
:100ED300E657F60809E657F60809E657F60809E65D
:100EE30057F622E056F008A3E056F008A3E056F0C8
:100EF30008A3E056F022E647F60809E647F6080994
:100F0300E647F60809E647F622E4C396F608E496B0
:100F1300F608E496F608E496F622600D08C6A2E702
:100F230013C618C613C6D5E0F322C6F4C608C6F422
:100F3300C608C6F4C608C6F4C622C3E7960809E77E
:100F4300960809E7960809E79622C3E09608A3E006
:100F53009608A3E09608A3E0962275D00075814019
:100F6300751801751903000207F0E6084608C31354
:100F73004608336002E633F422E7094709C31347FF
:100F830009336002E733F422600C08C6C313C618A2
:100F9300C613C6D5E0F422E6F008A3E6F008A3E6FC
:100FA300F008A3E6F022E0F608A3E0F608A3E0F6D3
:100FB30008A3E0F622CAC0E0E6F0A308DAFAD0E01C
:100FC300FA22E0FAA3E0FBA3E0FCA3E0FD22EAF0AF
:100FD300A3EBF0A3ECF0A3EDF022E0F8A3E0F9A378
:100FE300E0FAA3E0FB22E8F0A3E9F0A3EAF0A3EB25
:100FF300F022E5C754F84401F5C77901222518F515
:1010030082E43519F58322E727194719471947223F
:10101300E62618461846184622C2AF75D69F020028
:101023000022120D06035F00120D06575F00120D1A
:1010330006705F00120D06965F00120D06D15F0069
:10104300120D06156000120D063C6000120D068D90
:101053006000120D063D6100120D06F56100120DD0
:1010630006BD6200120D069A6300120D062064008D
:10107300120D062F6400120D063A6400120D06438A
:101083006500120D06546500120D06CA6500120DA7
:10109300065C6600120D06B46600120D067A670040
:1010A300120D06AB6700120D06F06700120D06FD68
:1010B3006700120D06916900120D06F46A00120D05
:1010C30006106C00120D067A6E00120D06856E0076
:1010D300120D068F6E00120D069A6E00120D06A4F5
:1010E3006E00120D06AE6E00120D06B96E00120DE3
:1010F30006C46E00120D06F56E00120D06196F0080
:10110300120D063D6F00120D06A26F00120D06E6CA
:101113006F00120D06027000120D06797000120D99
:1011230006B17000120D06FD7000120D065A710013
:10113300120D063C7300120D06C27300120D0693C6
:101143007400120D06A37700120D06F87700120D36
:1011530006247800120D06707900120D06C079007E
:10116300120D06157A00120D06167B00120D06AE3F
:101173007B00120D06307C00120D06D07C00120D90
:10118300065B2500120D06942500120D066E27003E
:10119300120D06AD2700120D06F72700120D069C4F
:1011A3002800120D06FB2800120D062F2900120D30
:1011B300069C2900120D06B92A00120D06C12B0048
:1011C300120D06572C00120D069E2F00120D064716
:1011D3003000120D06233100120D06843100120D6A
:1011E30006A13200120D06CB3400120D0682350023
:1011F300120D068C3500120D06BF3500120D068642
:101203003600120D06213700120D06863700120D27
:1012130006AF3700120D06D13700120D06003A0053
:10122300120D06D73A00120D061B3B00120D06885D
:101233003B00120D06433C00120D06753C00120DD7
:1012430006B93C00120D06EC3C00120D06413D00B0
:10125300120D06963D00120D062A3E00120D068C55
:101263003E00120D06F43E00120D069D4000120DC5
:1012730006854100120D06C74200120D06F5440013
:10128300120D06B54500120D06E44700120D068740
:101293004800120D06C54800120D06714A00120DD2
:1012A30006854A00120D068F4A00120D06B94A0040
:1012B300120D06C54A00120D06E44A00120D069BE4
:1012C3004B00120D06DA4B00120D06E44B00120D13
:1012D30006984C00120D06974D00120D06904E0015
:1012E300120D062D4F00120D06CF4F00120D06E60C
:1012F3004F00120D061D5000120D063B5000120D3B
:10130300067F5000120D06A45000120D068A5100EC
:10131300120D06F65100120D06705200120D067FD3
:101323005300120D06BE5400120D06205500120D77
:1013330006DA5500120D06FD5500120D06D15600B2
:10134300120D061C5700120D065E5700120D06B54E
:101353005700120D06EC5700120D061A5800120D15
:1013630006535800120D06785800120D0600590056
:10137300120D06235B00120D06825B00120D06168A
:101383005C00120D06825C00120D06D65C00120D85
:101393000612D903120D0651D903120D0671B301BA
:1013A300120D06CBB301120D0627B401120D0673FD
:1013B300B401120D068EB401120D06BFB401120D55
:1013C30006DCB401120D06E8B401120D065CB60189
:1013D300120D0675B601120D06DCB601120D06EFED
:1013E300B601120D06FDB601120D06B1B701120DBD
:1013F3000695B801120D069BB901120D0621BA011B
:10140300120D062BBA01120D0698BA01120D06AF82
:10141300BA01120D06E1BA01120D061ABB01120D33
:101423000644BB01120D06A5BB01120D06C5BB0187
:10143300120D06E3BB01120D0629BC01120D064F66
:10144300BD01120D069CBD01120D06CBBD01120D8F
:101453000641BE01120D0669BE01120D06A2BE01B0
:10146300120D06B0BE01120D0608BF01120D06577C
:10147300BF01120D0696BF01120D06C6BF01120D64
:1014830006F2BF01120D06FDBF01120D061BC001BE
:10149300120D06DDC001120D06E7C001120D062272
:1014A300C101120D0638C101120D0641C101120D11
:1014B3000696C101120D06AAC101120D06B8C2019A
:1014C300120D06CBC201120D06E2C201120D06F780
:1014D300C201120D0699C301120D061CC401120D9F
:1014E30006DAC401120D06E5C401120D060BC6018E
:1014F300120D0627C601120D0679C601120D06B894
:10150300C601120D06CDC601120D060FC701120D3D
:10151300065CC901120D06DAC901120D064DCA0196
:10152300120D066FCC01120D0687CC01120D068A2F
:10153300CC01120D0696CC01120D06AACC01120D98
:1015430006B2CC01120D06E5CC01120D0695CD01B4
:10155300120D060BCE01120D067ECE01120D0632C0
:10156300CF01120D06E7CF01120D0606D001120DB1
:1015730006A6D001120D06B2D001120D06DDD00170
:10158300120D06E0D001120D060FD101120D062433
:10159300D101120D068ED101120D06B6D201120D24
:1015A300068ED301120D0619D401120D0632D50190
:1015B300120D06EFD501120D0628D601120D06599C
:1015C300D601120D06F9D601120D0629D701120D07
:1015D3000604D801120D069DD801120D0628D90163
:1015E300120D06D9D901120D065BDA01120D068D13
:1015F300DA01120D06CEDA01120D0603DB01120D1C
:1016030006D8C702120D065AC802120D069AC8025E
:10161300120D0619C902120D06A3CC02120D0632D1
:10162300CF02120D06EED202120D0626D302120DC0
:101633000654D302120D06E2D302120D0636D4026B
:10164300120D0669D402120D0692D402120D06E29F
:10165300D402120D0667D502120D061AD703120D16
:10166300063CD703120D06AEB702120D0638B802B8
:10167300120D06AAB802120D0629B902120D06218F
:10168300BC02120D0644BC02120D069DBC02120DD3
:10169300068FBD02120D06F9BD02120D06BDBF0273
:1016A300120D0622C102120D06A9C102120D063443
:1016B300C202120D069DC202120D06E7C202120DEE
:1016C30006A3C302120D06BEC402120D062FC502E5
:1016D300120D068FC502120D06CCC502120D066A45
:1016E300C602120D0639C702120D06837D00120DC4
:1016F30006987D00120D069E7D00120D06A47D0046
:10170300120D06FF7D00120D065B7E00120D06A76B
:101713007E00120D069CD403120D06ADD403120DE8
:101723000683D503120D06C3C703120D06D1C703E3
:10173300120D06C8D903120D060BFF01120D061B6D
:10174300FF01120D063BFF01120D06E6FF01120D0C
:101753000652B503120D06F6B503120D0638B8038B
:10176300120D06DCCF03120D0609D003120D067EFF
:10177300D003120D0695D003120D06E6D003120D09
:10178300061CD103120D061FD103120D06D6F70155
:10179300120D06E4F701120D060AF801120D062ACE
:1017A300F801120D064AF801120D065DF801120D3B
:1017B3000670F801120D068DF801120D06AAF80144
:1017C300120D0665F901120D067BFC01120D065878
:1017D3009203120D06719203120D06069303120D66
:1017E30006049403120D06B49603120D0614970310
:1017F300120D067D9703120D06F87F00120D065396
:10180300B803120D06A1B803120D068FBA03120D09
:101813000637BB03120D0608E202120D0658E20258
:10182300120D0654E502120D0629E602120D0609F1
:10183300AA01120D06AAE802120D0607EB02120D09
:1018430006A5EB02120D06F5EB02120D0603EC02E0
:10185300120D0620EC02120D0649EC02120D06725F
:10186300EC02120D0680EC02120D06A5C503120D43
:1018730006BDC503120D06F0C503120D06F9C50317
:10188300120D061DC603120D063FC603120D065C9C
:10189300C603120D0679C603120D06DEC603120D2A
:1018A3000612C703120D064BC703120D065F5E0037
:1018B300120D065CF602120D067BF702120D06CB23
:1018C300F702120D06F7F702120D0610F802120DB9
:1018D300062EF802120D06CBF802120D06F7F902D6
:1018E300120D06A2FA02120D069DFB02120D06F856
:1018F300FB02120D063AFC02120D0694C903120DE7
:1019030006BDC903120D06D1C903120D061BCA0376
:10191300120D0666CA03120D06B1CA03120D06C2E2
:10192300CA03120D0625CB03120D0628CB03120D95
:101933000636CB03120D0647CB03120D0685A8030B
:10194300120D06BFA803120D0627A903120D065593
:10195300A903120D06A2A903120D06D4A903120DA1
:10196300060FAA03120D0639AA03120D065FAA0376
:10197300120D06C2AA03120D06F0AA03120D068663
:10198300AB03120D069EAB03120D06B3AB03120D90
:10199300065BD903120D0678D903120D06008003E6
:1019A300120D069C8103120D06AA8103120D06CAAD
:1019B3008103120D06F38103120D06508203120DEB
:1019C30006AC8203120D06418303120D06C6830380
:1019D300120D06578403120D06B38403120D06EE8F
:1019E3008403120D06E08503120D06F48503120D20
:1019F30006078603120D06298603120D069DD503DD
:101A0300120D06CED503120D06FFD503120D062CBB
:101A1300D603120D06EBAB03120D0612AC03120D27
:101A2300063DAC03120D06DDAC03120D063AAF03FF
:101A3300120D065DAF03120D066FAF03120D067D87
:101A4300AF03120D06A6AF03120D06C2AF03120DAC
:101A530006DEAF03120D06F9AF03120D0671B003D4
:101A6300120D06B4B003120D06EBB003120D0640BF
:101A7300B103120D0695B103120D06C3B103120D86
:101A830006D1B103120D06EBB103120D0639B203F1
:101A9300120D0627D803120D0696D803120D06CA97
:101AA300D502120D0613D602120D063FD602120DF1
:101AB3000658D602120D0678D602120D06E2D60299
:101AC300120D061CD702120D06ABDC02120D067AAC
:101AD300DE02120D06C0DE02120D062DDF02120D0C
:101AE30006A4E002120D06D4E002120D06EEE00297
:101AF300120D0602E102120D0656E102120D06B99D
:101B0300E102120D06CEE102120D06E8CC03120D1E
:101B130006FFCC03120D0628CD03120D064ECD038E
:101B2300120D067BCD03120D06ABCD03120D06CCB1
:101B3300CD03120D0603CE03120D062BCE03120D99
:101B4300065DD603120D06A8D603120D06B99C0333
:101B5300120D06D09C03120D063D9E03120D067254
:101B63009E03120D069A9E03120D06C79E03120DC5
:101B730006E09E03120D06219F03120D069F9F038D
:101B8300120D06EB9F03120D063FA003120D0676FE
:101B9300A003120D069CA003120D067CFC02120D7D
:101BA3000606FD02120D0616FD02120D0640FD0289
:101BB300120D062DD103120D063FD103120D065F40
:101BC300D203120D0662D203120D068AD303120D3D
:101BD30006B3D303120D06D2D303120D06F2D303B9
:101BE300120D0650D403120D0676D403120D06848B
:101BF300D403120D0698EC02120D06F5EC02120D39
:101C030006A3ED02120D06CCED02120D06F0EE0254
:101C1300120D06FEEE02120D0660EF02120D069E75
:101C2300EF02120D0623F002120D06C8F002120D88
:101C3300061BF102120D069EF102120D060EF202B0
:101C4300120D0699F202120D062BF302120D0682F3
:101C5300F302120D06E0F302120D06F2F302120D67
:101C63000604F402120D062AF402120D0633F402DE
:101C7300120D0684F502120D0658CB03120D068CC5
:101C8300CC03120D063ABB03120D067FBB03120DE4
:101C930006CCBB03120D0695BD03120D0661DB01D5
:101CA300120D0621DD01120D0670DD01120D061D58
:101CB300E001120D0682E001120D06AAE301120DE6
:101CC3000610E401120D0648E601120D0634E70181
:101CD300120D0697E701120D0627E801120D06DB28
:101CE300E801120D0634E901120D0693E901120D04
:101CF30006F2E901120D06FBEB01120D06FDED01E3
:101D0300120D06EBF001120D062DF101120D068DD9
:101D1300F101120D069FF101120D0614F201120DCD
:101D230006F2F601120D06A8D803120D06C3D80356
:101D3300120D06D3D803120D06A2D703120D069B6C
:101D43009703120D06BB9703120D06CE9803120DCF
:101D530006189903120D06369903120D067B990393
:101D6300120D06DA9903120D06209A03120D066E60
:101D73009A03120D06559C03120D06A89C03120D1F
:101D8300066DCE03120D0607CF03120D066BCF03AC
:101D9300120D06AECF03120D06F6A003120D06D6E2
:101DA300A103120D06F4A203120D06F7A203120DEE
:101DB3000632A303120D0696A403120D068C8C03A0
:101DC300120D06E28C03120D063E8D03120D068ED4
:101DD3008D03120D06C08D03120D06838E03120DA3
:101DE300065B9103120D064CB203120D06CDB2032E
:101DF300120D06FE9202120D06649302120D067571
:101E03009302120D06669402120D06309502120D0E
:101E130006969502120D06999502120D06B29502C9
:101E2300120D062D9802120D06BB9802120D06FA2A
:101E33009802120D06F99A02120D06189B02120D52
:101E4300066F9B02120D06B49B02120D06EB9B025A
:101E5300120D06319C02120D06499C02120D06D684
:101E63009C02120D063A9D02120D06969D02120D5A
:101E730006D59E02120D061CA202120D06C8A2026E
:101E8300120D0626A302120D06E9A302120D061275
:101E9300A402120D0615A402120D0618A402120DB7
:101EA30006A7A402120D06D9A402120D0610A5025C
:101EB300120D0658A502120D065BA502120D06654A
:101EC300D203120D0676D203120D06F9D203120DB8
:101ED30006008002120D06238002120D06408002C6
:101EE300120D06338102120D06B68102120D062071
:101EF3008202120D06B68202120D066A8302120DC9
:101F0300061E8402120D060E8502120D06E18502DD
:101F1300120D064A8602120D06F48D02120D0612E8
:101F23009002120D06599002120D066D9102120DC8
:101F3300069BA502120D067CA602120D0646A702F9
:101F4300120D0607A802120D06B2A802120D06EE24
:101F5300AA02120D0654AD02120D066FAE02120D47
:101F63000629B202120D065EB302120D0606B40272
:101F7300120D06ECB402120D060BB602120D060E7C
:101F8300BE03120D067FBE03120D06D8BE03120D4B
:101F9300067CBF03120D06CBBF03120D0655C0030B
:101FA300120D066AC003120D06A4C003120D06B378
:101FB300C003120D06C1C003120D06C6C003120DE5
:101FC300064CC103120D0680C103120D064EC20357
:101FD300120D06BCC203120D06D4A403120D06F3A0
:101FE300A403120D0650A503120D067EA503120DC0
:101FF30006A8A503120D06CBA503120D06DEA60344
:10200300120D06F5A603120D0618A703120D0640BE
:10201300A803120D0655A803120D0672A803120D8C
:1020230006628603120D06068C03120D060B8C0343
:10203300120D06D4C303120D06ECC303120D06A240
:10204300C503120D069CD903120D067CA901120DBE
:10205300066FA901120D067DA601120D06CFA3017D
:10206300120D06A3A201120D06F7A101120D0648D7
:10207300A001120D06039E01120D068A9D01120D89
:1020830006D55D00120D06745D00120D06319D012B
:10209300120D06C59C01120D06225D00120D0610DD
:1020A3005D00120D069C9C01120D068F9A01120D04
:1020B300065B9A01120D06289A01120D060C9A016D
:1020C300120D06329901120D06EA9801120D061F30
:1020D3009701120D069F9601120D069C9601120D93
:1020E30006A39501120D06719501120D06AE94011A
:1020F300120D06D99201120D066A9201120D063CC9
:102103009201120D06399201120D06269201120D4B
:1021130006BE9101120D06AD9101120D0628B20102
:10212300120D060AB201120D06BFB001120D061CF4
:10213300B001120D06C9AE01120D067AAC01120DE3
:102143000683AB01120D068E9001120D0658900105
:10215300120D061B9001120D06BC8F01120D0667AE
:10216300AB01120D068B8F01120D06468C01120D69
:1021730006378B01120D06C68A01120D0613AB0139
:10218300120D068B8A01120D06F5F502120D065685
:102193008A01120D064A8A01120D06AA8901120D3F
:1021A30006F18801120D06C48601120D0650840142
:1021B300120D060E8401120D06D98201120D068E30
:1021C3008201120D06C08101120D06178101120D45
:1021D30006CBAA01120D06ED8001120D06B3800194
:1021E300120D0623E70200000080FBE473000136B2
:1021F300360101000102010001030100010401068F
:102203000605020000070100340801000F0904015C
:10221300010D0100FF0E0800001702000019010064
:10222300FF1A0100011B0100FE1C0100081D020032
:10223300001F010001200100012102000023010011
:102243000F240200002601000127010008280200D4
:10225300FF2A0100072B0102402C0100002D010081
:10226300012E0100012F0100FF30010B1C3108007A
:10227300003A0100083B01000F2F01000003007129
:10228300003001600011007000310220035004800F
:10229300001000610000001400630073007200620C
:1022A30000430000001300060000000000040012B9
:1022B30000000000000000000004000400370037A5
:1022C300003C024400000000000000000065000024
:1022D30000350081000000050000008300000003BA
:1022E3000271023001600211027002010202020255
:1022F300028002100261023A00410063027302721B
:1023030002620243020002130238000002000204C8
:102313000212020002000200020002040204023759
:102323000037003C0244020002390000020002654B
:1023330002000235028102000205028202830200CA
:1023430002010371030103010301030103010322DA
:10235300030203010310030003000300030003004F
:1023630003000300034203000324030603000300E6
:102373000304031203250323032503230304030494
:1023830003000300030003440300030003230300CB
:1023930003650321003503810300030503000300E4
:1023A3000300030101710101010101110101013167
:1023B30001010101018001100161013B001400636F
:1023C3000173017201620143010001130106013D22
:1023D30001350004011201000100010001000104A4
:1023E300010401330133013C014401320136000091
:1023F3000100016501000135008101000105018231
:10240300018301000136000100060000000F0000F7
:10241300000000000000000000000003FFFF0000B8
:102423000403FFFF0000FFFF0FF4010005C40403D2
:1024330020000100030B0000000000000000030166
:102443000F0100491F0200F51E0300FB1E040001DB
:102453001F0500071F0600131FFFFF000039146943
:10246300143F1445146314571451146F1475147BDB
:102473001487144B1433142D1403EAF5E5D5D5C58D
:10248300B5A5959585857575656555554545353569
:1024930025251515050A051202CF1105E11107D5EA
:1024A300110CB1110DC311FF000000160F00000B3A
:1024B300150B020002220F3200000629153B1541BD
:1024C3001503144715FD1309149515B315B9159B79
:1024D30015A715A1150C0E020B040B0A0708000F14
:1024E3000001191618161615230300303016181993
:1024F30020231A1C1E3000034948424D1817250596
:1025030002303017181921301B1D1F3000383C3E94
:10251300363B3B352B432C7D154D1553155F155914
:10252300155D148114AD158D149314020402010179
:102533000101090200000000000000BE040A0E00B1
:10254300040028001500E8030C0A030904FF1E1EFB
:102553000C0405100008080F74F7120784E99003B0
:10256300B0F0900365E4F0121BB39003B5E4F0A35D
:10257300F09003B1F0A3F012133D121BB990033492
:10258300E4F0A3F090255A93FA790212200F025136
:10259300F174F2120784EAFEEBFF54806069900342
:1025A300B0E0F9121C258A088B09EA4509604F7CC3
:1025B3000080010CEC75F003A4F8A9F0749828F5D9
:1025C30082742439F583E493F4602CE493F885084A
:1025D300828B83E06870DCAA08EC75F003A4F874BE
:1025E3009928F582742439F583E493C0E074019348
:1025F300F583D0821221EEAA08AB09121C19EEFA58
:10260300EF6480FB022761EF5420601D12125F8A82
:10261300088B09EA4509600A1211C3AA08AB09121B
:102623001C19EEFAEF642080DAEEA2E0501A900350
:102633006AE0640F700B790012118DE960031227B1
:1026430064EE6401FAEF80BB5420700302272F75F8
:102653000C00123C368B09EA450970107C027D00A0
:102663007A207B009003B0E0F9121D5D7C007904B1
:102673007A007B0012123B8A088B09801885088236
:10268300850983A3A3A3A3A3A3A3A3A37401F08591
:102693000A08850B09E5084509606D7C007904AAE1
:1026A30008AB0912123B8A0A8B0B750C01E508244F
:1026B30004F8E5091239DA24FFF0A3E034FF125CD1
:1026C300CD70CC850882850983A3A3A3A3A3A3A369
:1026D300A3A3A3E0640170A5850882850983A3A34E
:1026E300A3A3A3A3E054047094850882850983A35C
:1026F300A3A3A3A3A3A3A3A37406F07AB785088215
:10270300850983122890808712120B7C0079017A45
:10271300007B0012123B8B09EA45097009E50C7036
:10272300057A20124B90EE6420022647EF54026094
:102733000B121337EEFAEF6402022606EF5404601D
:1027430019124D27124C477901900363124FAB12B4
:1027530010D3EEFAEF64040226067A007B00022906
:1027630097900E9212302E1211A522C082C083744C
:10277300EA120DCF851882851983AA82AB83794B20
:10278300121FE574081210007402F074091210008D
:10279300AA82AB837950121FE57413121000E4125E
:1027A300517A122003741602415474F71207847489
:1027B300E1120DCFEAFEEBFFEE4F60338518828501
:1027C3001983AC82AD831212837406121000E06089
:1027D3001E7417121000E0FD7401121000E0FCEEED
:1027E300FAEFFB7900122123E9600479A4800279CE
:1027F300000251EC74F6120784EAFEEBFF8E828F1F
:1028030083A3A3A3A3A3A3E05440601B125669129E
:10281300295E60067AFF7BFF801A8E828F83123DCA
:10282300E0FAA3E0FB80031212A774FE6A7003743C
:10283300FF6B6041125669124BD41212FBE98E8270
:102843008F836006122889E480051228897401F0B9
:102853007C937D118E828F83124FAB122009E9F591
:10286300087015EE4F60097901EEFAEFFB121217AB
:10287300A908024C057508CDAA088E828F831228F9
:1028830090E960DF80EAE0240D1242AF22E0240CDD
:102893001242AFE0F912119F2274F6120784E9FE87
:1028A300EAFF7A0F7B00121C13EA4B60198A828BB2
:1028B30083740CF0EEA3A3F0EF8A828B83A3F01250
:1028C3004C307900802FEEF91212418A088B09A847
:1028D30008A909E849601C88828983A3A3A3A3A349
:1028E300A3A3A3A374061258F4E0F9121157EEF947
:1028F30012121D7910024C05C082C08390036AE056
:10290300640F7014EA4B6010900365E0640860057F
:10291300E06404700312291E02417EEAFCEBFD7A97
:10292300017B009003B0E0F9121D5722C082C083DF
:102933007900EA241DF582EB123DDD24FD600B14C2
:10294300600824FD600424FD70010902417E8E822B
:102953008F83A3A3A3A3A3A3A3A3A31229622212D6
:102963003E25FB1212FBE9228E828F83A3A3A3A32E
:10297300A3A3A3A3A31229626402228E828F83A33B
:10298300A3A3A3A3A3A3A3A3124175900356E06833
:1029930022120D517F06020AEA74F412078474FDB1
:1029A300120DCF8A088B098A828B83A3A3E0F912C5
:1029B30012418A0A8B0BAE0AAF0BEE4F7003022A49
:1029C300A3850882850983A3E064F16030850882CA
:1029D300850983A3E064CD6024850882850983A3E8
:1029E300E0641A6018850882850983A3E064E960BE
:1029F3000C850882850983A3E064E17008790012DD
:102A03001217E9706C850882850983A3E0C0E0741E
:102A130002121000D0E0124159EEF0A3EF123484F9
:102A2300851882851983AA82AB8370051210BB8037
:102A3300031212E37402121000E064E970338E8211
:102A43008F83122AAF750A01780A120D42750AE9BB
:102A5300780A120D42E508240CF582E509122F7657
:102A6300123461FCA3E0FD8A828B8312347B120D46
:102A7300518E828F83A3A3A3A3A3A3A3A3A3E064E1
:102A83000270108E828F83A3A3A3A3A3A3A3A3A3E4
:102A93007406F0850882850983A3A3E0F912121D49
:102AA30012120B900E96122767023033E0F8A3E060
:102AB300F9E8FAE9FB2274F4120784EAFEEBFF75E6
:102AC30008008E828F83A3A3A3A3A3E060427508AB
:102AD300088E828F83A3A3A3A3A3A3A3A3124088D7
:102AE3008B0BEA450B601075082C8E828F83A3A392
:102AF300A3A3A3E0D2E0F08E828F83A3A3A3A3A317
:102B0300E0540364016003022BA2430811022BA2C9
:102B1300EE24181230406033EE241A123040700F46
:102B230012297E7003A3E06970757508228070EE28
:102B3300241BF582EF122BA7241AF582EF12348C93
:102B4300EE241912569D121145805412296B7003FD
:102B530075080112297E7003A3E0697006E508D2A7
:102B6300E1F508E50860158E828F83A3A3E0700664
:102B7300E508D2E58004E508D2E6F5081229516498
:102B8300017006E508D2E0F5088E828F83A3A3E0E7
:102B9300600D122BB564016006E508C2E0F508A9D3
:102BA30008023038123DCB122BAE22E0FCA3E0FD2D
:102BB300EE22123DC5123DFDF91212E9E922C0824F
:102BC300C08379018A828B83A3A3E0C3940240016B
:102BD300198A828B83A3A3A3A3E0C394024002793F
:102BE300008A828B83A3A3A3A3A3A3A3A3A3E064C9
:102BF300F87003A3E0F460458A828B83A3A3A3A3A5
:102C0300A3A3A3A3A3E064F97003A3E0F4602E8A53
:102C1300828B83A3A3A3A3A3A3A3A3A3E064FA70B8
:102C230003A3E0F460178A828B83A3A3A3A3A3A3C4
:102C3300A3A3A3E064FB7003A3E0F4700279008A0A
:102C4300828B83A3A3A3E0F8900353E06860027927
:102C53000002417E74F012078474DE120DCFEAFE87
:102C6300EBFF8E828F83A3A3A3A3E0600E900E9449
:102C7300124BFC6006900E94122767740312100027
:102C8300AC82AD838E828F83A3A3A3124C7E125496
:102C9300B7E9600F7403121000AA82AB831211BD4F
:102CA300E970087901121BC5022F6BEE241B123D3C
:102CB300D07410121000124C477409121000E06017
:102CC30021741A121000E0FD7404121000E0FC8E4F
:102CD300828F83124FA97901122123E960047902BB
:102CE30080C37403121000AA82AB831211B7E9F5F3
:102CF3000A7409121000E0702A90034DE0602474F6
:102D030022550A6422601C7442550A644270CF74CF
:102D130020121000122F89600A7420121000122F43
:102D23008270BBE9A2E650417403121000AA82AB81
:102D3300831211ABE97003022CA674201210001247
:102D43003DE06403700F7420121000A3124BEEA336
:102D5300E0640D60147403121000AA82AB83121393
:102D63000DE964017003022F6BEE242C122F7312F2
:102D730032977003A3E069701C7508007808120D80
:102D8300427808120D42EE242E12569D122F8F12F6
:102D9300347B120D517409121000E07003022E48A7
:102DA300122F8F124FAB1213618A088B09EA450960
:102DB3007003022EE57404121000E0F88E828F83F4
:102DC300A3A3E028F8A3E03400F9E8240D122F7A36
:102DD3008A828B83A3A3A3E068601CE88A828B8327
:102DE300A3A3A3F09080AE120FC585088285098343
:102DF300A3A3A3A3120FD17904E9121000125494D0
:102E03002AF8A3E034008882F583A3AA82AB831255
:102E13001C078A0C8B0D8C0E8D0F85088285098308
:102E2300A3A3A3A3780C120CDE4003022F6B9080A4
:102E330072780C120E87850882850983A3A3A3A346
:102E4300780C120F9A900365E064046008E064094B
:102E53006003022F6BE50AA2E54003022F23EE2451
:102E63002E123040851882851983F0EE242F1230FC
:102E730040C0E07401121000D0E0F0EE24301230B4
:102E830040C0E07402121000D0E0F074141210007D
:102E9300E064017027740E121000123DD6EE241266
:102EA300123040687003A3E0697011740C121000B3
:102EB30012297870077414121000E4F0EE2424121F
:102EC3002F73120BA37404121000AC82AD8374072A
:102ED300121000AA82AB831210C17404120D5102A6
:102EE3002F6B9003AAE064016003022E4874201242
:102EF3001000122F897009E50AA2E65003022E483A
:102F03007410121000E0F47003A3E0F4605AEEFCB6
:102F1300EFFD7403121000AA82AB831211C980481B
:102F2300A2E650447420121000124FBA701A741A99
:102F3300121000E0640270307403121000AA82AB16
:102F43008379001212D780207420121000122F826E
:102F53007016741A121000E06404700C74031210DB
:102F630000AA82AB831212D17422025366EE240BA1
:102F7300F582EF123DCB22F582E9124C60F8221262
:102F8300567BE0640722123DFD640622EE242A12DA
:102F93003DC8122BAE2412123DC82274F4120784CA
:102FA300EAFEEBFF8C088D09900EA1E0600F122959
:102FB3007E7003A3E0697005121133804F7900120C
:102FC3004F9E1211638A828B83E58245836035A30A
:102FD300A3A3A3A3A3E05418602AE508241BF58246
:102FE300E509122F76120BA7123674122F76120BE5
:102FF300A7EE241812569D12301112117574041283
:103003000D518008790012301112113980278E82F8
:103013008F83A3A3A3A3A3A3A3A3A3122BAE240BC6
:10302300F582EF12302A223400F583123E25FB226B
:103033007403120D517F04020AEAEE2417F582EF9E
:10304300124C602274F712078474F7120DCFEAFE54
:10305300EBFF900365E06403600DE064016008E04A
:10306300640960030231118E828F83A3E0707E7C3A
:10307300007D007A027B00121BBFEE2402FAEF12DE
:1030830039E1123DD6900356124C477953121FEB88
:103093007900123116E0640960031234A98518829D
:1030A3008519837401124C1D9003657404F0740137
:1030B300121000AA82AB83794A121FE57401121021
:1030C30000AC82AD837A5B7B03121D93900356128F
:1030D30054AD7A031234B3900350E0A2E35004D208
:1030E300F08002C2F0124C0A122764801E8E828F77
:1030F30083A3AE82AF83FC7D007A037B10121BBFD8
:103103008E828F83E0F9123116E4F01211F3740901
:103113000251EE90036312302E1210D390036522F6
:10312300C082C083900334124BFC701F900365E090
:1031330014600924FC600A14600C800F90033C8027
:1031430032900338802D90033A8028E84960089034
:10315300033512345B700C8A828B83A3E0F912105F
:10316300C7801B900335123710700512132B800E86
:103173009003D2124BFC6006124BEE1221EE024179
:103183007E74F412078474FB120DCF8A088B097ABC
:103193000F7B00121C138A0A8B0BAE0AAF0BEE4F88
:1031A300700302328B8E828F831251787950121FF3
:1031B300E5850882850983A3E060030232739003E7
:1031C30063E0F47003A3E0F46034900363E064FE0F
:1031D3007003A3E0F4602785188285198312329760
:1031E3007003A3E0696017850882850983A374EAE5
:1031F3001234917A637B037950121FEB8072851826
:103203008285198312565C124C477A567B03795395
:10321300121FE5900356124C78124C477A597B03E0
:10322300794B121FE57A587B0379E1121FE590036E
:103233006AE0C3940F5021900358E0C0E074021277
:103243001000D0E0F074041210007401F0041210A6
:1032530000AA82AB83121FFD750A00780A120D4281
:10326300780A120D42900EE2E0F9123472120D51F7
:10327300850882850983123290A3F0900365740355
:10328300F0EEFAEFFB124C307405023035A3E08EFA
:10329300828F8322125660E068221242B62274F5AE
:1032A30012078474D8120DCF8A088B098A828B8304
:1032B300A3A3A3123E027415121000AC82AD838A3D
:1032C300828B83A3A3A3A3A3A3A3A3123461FAA30F
:1032D300E0FB1211F97415121000E0706B8508827F
:1032E300850983A3A3A3A3A3A3A3A3E0C3940B4030
:1032F300578E828F83A3A3A3A3A3A3A3A3E06402F4
:103303007046EE240B123040F4703D900365E06488
:1033130002603AE064066035900334124BFC6005AA
:1033230012345B604F900365E064086005E0640459
:1033330070167417121000E0F9741C121000AC829E
:10334300AD83124F9E1211FF7428025B7A900334EF
:10335300124BFC701F7508007808120D4278081292
:103363000D42EE2410122F731256B5123AC91234BD
:103373007B120D518E828F83124F1A1239F3123D35
:10338300D67402121000124C47EE240D123040C0C6
:10339300E07404121000D0E0123484F508A3E0F5C1
:1033A30009740F7808120F8B7405121000E508F0EA
:1033B3007419121000E0C0E07406121000D0E0F09F
:1033C300741B121000E0C0E07407121000D0E0F08C
:1033D3007416121000E0C0E07409121000D0E0F07F
:1033E3007417121000E0C0E07408121000D0E0F06F
:1033F300EE2410123040C0E0740A121000D0E0F046
:10340300741A121000E0C0E0740B121000D0E0F048
:103413007427121000E0C0E0740C121000D0E0F02A
:10342300741C121000A982AA8389088A09750A00EC
:103433007808120D3A7C087D007410121000AA82DD
:10344300AB831247AB120D51851882851983AA826B
:10345300AB831210CD02334B123716640122E0F90D
:103463008A828B83A3A3A3A3A3A3A3A3A3E02290F2
:1034730003631254B190035912302E1212B974021D
:1034830022F0EE240B124C5D22124C60FA22F07AE9
:10349300567B03795312349C22121FEB7A597B0318
:1034A300794B121FEB2290036312302E12135B220F
:1034B3007B00121BBF9003591254B17A047B001294
:1034C3001BBF22F01256C02274F212078474F81242
:1034D3000DCFEAFEEBFF8C0A8D0B890C85188285D4
:1034E3001983AC82AD837583807582397408120C9D
:1034F3009EF50DEEFCEFFD851882851983AA82AB3C
:1035030083124E7B7003750D019003B1803BEEFC7B
:10351300EFFDE508240BFAE5093400124E7A601E2C
:10352300850882850983A3A3E0650C701185088251
:10353300850983E0650A7004A3E0650B6038E5083C
:103543002414F582E509122F761239EBE5084509B3
:103553006024E50DA2E040B6850882850983E06515
:103563000A7004A3E0650B70D5850882850983A3DF
:10357300A3E0650C70C8AA08AB097408022994C0BB
:1035830082C0839003B102417B74F71207849003D6
:10359300B1123E258012EA2414F582EB122F761223
:1035A3003E02121C97EEFAEFFBEA4B70E99003B16F
:1035B300E4F0A3F00251F17F07020AEA74F1120763
:1035C30084EAFEEBFF890A8C088D098E828F83E0E3
:1035D3008C828D83124092AE82AF83E012486B12CD
:1035E30047DCC412486B12367DE054038C828D8312
:1035F3001247DAA2E2E4338C828D831247D9131384
:1036030013541F12486B1247D8A2E7E4338C828D00
:1036130083A3A3A3A312367D8E0C8F0D750E0078A2
:103623000C120D3A7C087D00E50824071254201281
:103633000D5112548B8E0C8F0D780C120D3A7C03A6
:103643007D00E508240F125420120D51E50AC3949E
:103653000F40148E828F83A3A3A3E0C0E0123674BD
:10366300122F76D0E080061236741258E8F0023535
:10367300BAE5082412F582E50922A3A31240960EA7
:10368300AF832274F412078474F9120DCFEAFEEBB0
:10369300FF8908900334124BFC600E123710700937
:1036A300EEFAEFFB121325805F900363E06E700365
:1036B300A3E06F70537401650860097A777B031286
:1036C3004E7B70447A007B02123C3A8B0BEA450B2B
:1036D3007036900366120FC5851882851983120F01
:1036E300D190036CE0C0E07404121000D0E0F074D9
:1036F300051210007401F0740612100012517812B2
:103703001097E9609B12109D74070230351237162B
:1037130064022212567CA3A3A3A3A3A3E02274F5FD
:103723001207848A088B098A828B83A3AE82AF83B4
:10373300E0F91210EB8E828F83E064EB600C850856
:1037430082850983A3E064E1700985088285098382
:10375300A3E4F0122764750A01780A120D42850862
:1037630082850983A3E0F5087808120D42790012D7
:103773003472120D5112120B025B7DEAF0A3EBF0CF
:1037830002417E74F61207849003B4E0701B7C0040
:1037930079017A007B0012123BEA4B600C8A828B20
:1037A30083124BFC6003121199024C05C082C08343
:1037B300123C22401079FF121235E9F8902553E4A8
:1037C30093C398500479018002790002417E74F01A
:1037D3001207848A088B09890B750C008A828B83F4
:1037E300A3A3A3A3A3A3A3A3E0F91212418A0E8B5D
:1037F3000FAE0EAF0F750A01EE4F60030238AF85AF
:103803000882850983A3A3A3A3A3A31254AD8508A8
:1038130082850983A3A3A3A3A3A3A31245AB124F3A
:10382300AB1212298A0C8B0DAE0CAF0DEE4F700349
:103833000239D28E828F83A3A3A3A3E4F0A3F0E57E
:1038430008240B1239DEE0C0E0122F70D0E0F01232
:103853001301EE240CF582EF124BD0E508240EF58C
:1038630082E509123DD3EE240EF582EF124C447526
:103873000C01EE2406F8EF1239DA547FF0A3E0547A
:10388300FC125712E054046003023935900EF4120F
:10389300459C74077808120EAD8E828F83A3A3A371
:1038A300A3A3A3E04508F0A3E04509F08E828F832C
:1038B300A3A3A3A31239E974077808120F8BE508B1
:1038C3005407F508E50B607A8E828F83A3A3A3A325
:1038D300A3A3A3A3A374021247DD240D1242ABE0FA
:1038E300A2E2500B900351124C78A3A3124C47E56C
:1038F3000870030239A7EE2406F8EF3400F9E8FA5A
:10390300E9FB8A828B83E0547FFCA3E054FCFDE552
:103913000824FFF508E434FFF50974077808120E4C
:10392300ADEC4508F8ED4509F98A828B83124C47C3
:1039330080728E828F83A3A3A3A3A3A3E0448002F8
:1039430038AEE5087005750A0080598E828F83A30F
:10395300A3A3A3A3A3E054206012121C0DEA547F77
:10396300245F8E828F83A3A3A3A380238E828F835E
:10397300A3A3A3A3A3A3E05410600A121C0DEA544B
:103983000F240A80DD8E828F83A3A3A3A37401F087
:10399300A3E41239F37404123C318B09EA4509702C
:1039A30003124BC3E50CA2E050288E828F83A3A39E
:1039B300A3A31251DEF9EEFAEFFB12122FE9601204
:1039C300124BF26003123DBBEEFAEFFB121C97752C
:1039D3000A00A90A025369124D3B22FAE509340091
:1039E300FB8A828B8322A3A3E0F508A3E0F50922D7
:1039F3001239F72212543CA3A3A3A3A32274F412F3
:103A0300078474F7120DCF7E00121241EA4B700344
:103A1300023AC28A828B83A3A3A3A3A3A3A3A3A3D0
:103A2300E064066003023AC28A828B83A3A3A3A342
:103A3300A3A3A3E0FF8A828B831242BEE0C0E0749B
:103A430008121000D0E0123DF6124E81124C4712BC
:103A53001253EF540860668518828519831254AD9A
:103A63007A007B001212238B0BEA450B704F9003F5
:103A730063123EE61220157C007D007A007B0080F5
:103A8300288E828F83123DE0F47003A3E0F4602D4F
:103A9300900363123AC9124FAB1218B3E9641A6068
:103AA3001C7C007D00EEFAEFFB1212238A0A8B0BBB
:103AB300AE0AAF0BEE4F70C9790012201B7E01EEE8
:103AC300F97409023035123ACD22E0FCA3E0FD8EF1
:103AD300828F8322C082C083EA4B70059003B58036
:103AE300068A828B83A3A3123CE660258A828B839A
:103AF300A3A3A3A3A3A3A3E0540860E5EC4D60151F
:103B03008A828B83123DE06C7003A3E06D70D280D8
:103B1300047A007B0002417E74F2120784EAFEEB12
:103B2300FF890A8C088D097A107B00121C91EA4BDD
:103B3300603F8A828B83A3A3A3A3A3A3A3A3A3E42A
:103B4300123DE4A3E50A125682A3123B7E8A828BBE
:103B530083A3A3A3A3E4F0A3123DF0A3F01255168D
:103B6300EA240CF582EB124082123B77A3A3F0A365
:103B7300F0022997A3F08A828B8322A3A3E508F09E
:103B8300A3E509F02274F4120784EAFEEBFF890827
:103B93008C0A8D0BEE4F6055740165087014790122
:103BA300121235E9F8902558E493C398500F791110
:103BB300806A74046508702F123C2240F18E828F54
:103BC30083A3A3A3A3A3A3A3A3A3E508124092A340
:103BD300125C078E828F83A3A3E4F0A3F09003B556
:103BE300124BFC6021800D7402650860D079C1809E
:103BF3002BE0F8A3124C71A3A3123CE688828983BD
:103C0300A3A370ED80039003B5EEF0A3EF123C3154
:103C13008B0BEA450B7003124BC3790002303879E2
:103C230004121235E9F8902555E493C39822F01253
:103C33003C36227A207B009003B0E0F9121D692202
:103C4300C082C083E9F879009003B5801D8A828B16
:103C530083A3A3A3A3A3A3A3A3A3E068600574FF03
:103C6300687001098A828B83A3A3123CE670DE028B
:103C7300417E74F7120784EA4B70059003B5800602
:103C83008A828B83A3A3123CE660248A828B83A35C
:103C9300A3A3A3A3A3A3A3A3E06970E4EC60148A82
:103CA300828B83E0240D12549EA2E240D380047AD7
:103CB300007B000251F1C082C0839003B580068A65
:103CC300828B83A3A3123CE660128A828B83A3A315
:103CD300A3A3A3A3A3A3E06970E580047A007B00F8
:103CE30002417E12302EEA4B2274F21207848A0AB2
:103CF3008B0B8C0C8D0D750800750900EA450B6064
:103D03002E9003B580068E828F83A3A3123D396064
:103D13001EAC0CAD0DEEFAEFFB850A82850B831208
:103D230021EEE9640170DFEEF8EFF988088909AA4A
:103D330008AB09022997E0FEA3E0FFEE4F2274F7D8
:103D43001207849003B5123DD67C007D00800DE8F8
:103D5300FCE9FD88828983A3A3123DD6E84960303C
:103D6300EA687002EB6970E79003B5124FABE86A3B
:103D73007002E96B88828983A3A37008123DD690F1
:103D830003B58009123DD68C828D83A3A3124C47C1
:103D93000251F174F7120784EAFEEBFFEE4F601550
:103DA30012124D123E08124BF26003123DBBEEFAA3
:103DB300EFFB121C970251F1EE240C123DC8123E88
:103DC3001D22EE241DF582EF3400F58322F582EFE8
:103DD300123DCB12417522F582EF123DCB123DFD10
:103DE30022123DE82212568AA3A3A3A322123DE87E
:103DF300A3A322123B78123DFD22125675E022E066
:103E0300FEA3E0FF228E828F83E0241C1242AF12B6
:103E13003E1D8E828F83123E1D22123E25FB121CF5
:103E23009722E0FAA3E022C082C083EAFCEBFDEC18
:103E33004D700479058044EC24FBF582ED34FF12C8
:103E43004BFA7007123E81E0F46005121C1980E3FF
:103E53009003B0E0C0E0123E81D0E0F090254CE446
:103E630093F97AB77B03121C43E96401700B7A0060
:103E73007B20124BC779008002790402417EEC2437
:103E8300FFF582ED34FFF5832274F4120784A2AFA9
:103E9300E433F508C2AF9003B7123D396038EE241E
:103EA300FBF582EF34FF124BFA7A007B209003B0CC
:103EB3006005124BCA8005E0F9121C4FE4F50AF5C0
:103EC3000B780A120D3EEEFCEFFD7AB77B03121C52
:103ED3003D7402120D51E508A2E092AFEEFAEFFB3A
:103EE3000230381254B1851882851983AA82AB83B4
:103EF3002274F212078474FC120DCFEAFEEBFF75F5
:103F03000AFE750BFF121211E96005791102407761
:103F1300EE24151230406037900F08E0C43354E0AC
:103F2300F8E0333354FC48C0E0EE2415122F73D06D
:103F3300E01240921240888B09EA45096011750A24
:103F4300FFEE240F1230404404124C55D2E0F08EA1
:103F5300828F8312295C6006EE241212407FEE24C6
:103F6300131230407010902552E493C0E0EE2413F6
:103F7300122F73D0E0F08E828F83E0A2E7500454B7
:103F830003801CEE24141230407015900342E0C0ED
:103F9300E0EE2414122F73D0E0F0900342E004F01B
:103FA300EE241112304064017016900E98E0600DFB
:103FB30090034DE0700A8E828F83E0700312407C81
:103FC3008E828F83E064017013EE240B123DDA645A
:103FD300027009EE240F1230404440F085188285A8
:103FE3001983AC82AD83EEFAEFFB1212778A088B4A
:103FF3000974FE650A700374FFF470098E828F835F
:10400300A3A312542CEA450960668E828F83E0C015
:10401300E07401121000D0E0F07402121000125587
:104023001A740112100085820C85830D780C120D11
:104033003EEE240F122F73120BA7EE240E12304004
:10404300F50C780C120D42900356120BA77407124D
:104053001000E0F9AC0AAD0B1212717407120D5186
:10406300E9FE74106E700BAA08AB09121C9780024C
:104073007E10EEF97404022994EE2411F582EF12F6
:104083003DCBE4F022A312302E79FF1221D122126C
:10409300409622F08E828F83A322C082C08374DE77
:1040A300120DCF8A828B83A3A3A3A3123DD6740ED2
:1040B300121000E8F0A3E912416C740C1210001204
:1040C3004165240DF582EB123043C0E0741A1210DF
:1040D30000D0E0F0125379EB123DD374201210009C
:1040E3001241652415F582EB123043C0E0740812C7
:1040F3001000D0E0F0EA241CF582EB123DD37412D9
:104103001210001241652411F582EB123043C0E016
:104113007409121000D0E012415974FFF0740112B7
:10412300100074FFF0740212100074FFF09080AE60
:10413300120BA37404121000AC82AD837407121027
:1041430000AA82AB831210C17404120D517900745A
:1041530022120D51802512415D22F08518828519A6
:104163008322E8F0A3E9F0EA22123B78A312417418
:1041730022A3E0F8A3E0F922124FABD083D082024E
:104183000D0374EC12078474EE120DCF8A128B1395
:10419300ECFEEDFF8909742612100012542C7428CA
:1041A300121000E0F51074291210001242A0742BB3
:1041B300121000E0F50EA3E0F50F7508107A1E7BD0
:1041C30000121C917402121000124BD474021210CC
:1041D30000124BFC7003024299851882851983AA49
:1041E30082AB837950124AAF124FAB7402121000A4
:1041F3001242BEA3124BD47410121000125C097445
:1042030002121000E0240B1242AB7402F0121000F1
:104213001242BE7402F012100012566D12551A7437
:1042230002121000124FC0E509F07402121000E0F0
:10423300240C1242ABE510F074021210001242A8D3
:10424300E512F0A3E513F07408121000E50CF0A3D7
:10425300E50DF0740A121000E510F0850E82850F4B
:1042630083C082C083740D121000AC82AD83D083EF
:10427300D0827403120C9EF97402121000AA82AB4E
:1042830083121217E964017005750800800874022F
:10429300121000123DC1A9087412025443E0F50C38
:1042A300A3E0F50D22E0241C1242AF22F8A3E01292
:1042B30042B6223400F98882898322124FB3A3A322
:1042C300A3A3A32274EE120784EAFEEBFF8C088DEE
:1042D300098E828F83A37408124C90E060088E824B
:1042E3008F83A37410F012303D60098E828F83A3F5
:1042F300E02408F0EE241512304060088E828F838C
:10430300A3E004F08E828F83A3A3A3A3A3A3E060FF
:10431300198E828F83A3A3A3A3A3A3A3E0C33324F0
:1043230002F88E828F83A3E028F0EE24111230402E
:104333006005750B0E8003750B008E828F83A3C0FF
:1043430082C083EE240D123040D083D082F8E0285F
:10435300250B8C828D83F0EE241112304060051200
:1043630047BB28F0850882850983E0C3947540091B
:104373007508007509000244A9E0FA7B001255C8CC
:1043830070030244A9EEFAEFFB12127DEA8508825C
:10439300850983124BD5EE2402F8EF12329D1245A4
:1043A300A31244E5F0EE24040808EF12329D1249EB
:1043B300E5A31244E5A3A3F0EE24131244CBF0EEDD
:1043C30024141244CBA3F0750A08EE2416123040CD
:1043D3006010EE24181254AAE50824081256AB758F
:1043E3000A1012303D6016EE241A1254AA850A0CE4
:1043F300E508250C1256AB7408250AF50A8E828F40
:1044030083A3A3A3A3A3A3E06059EE2407F510EFAE
:104413003400F511851082F583E0C0E01244B21236
:104423002F76D0E01244D5E0C0E01244B2122F76CA
:10443300D0E01244D5A31244BE120D3A85108285F2
:104443001183E0C333FCE433FD850A0CE508250C36
:10445300125420120D51851082851183E0C3332538
:104463000AF50AEE2415123040600BC0E01244B284
:10447300122F76D0E0F0122F701244BE120D3AEED6
:10448300240D123040FC7D00850B0A8E828F83A39E
:10449300E0F8E50828F8E5093400F9E8250AFAE91F
:1044A300125423120D51AA08AB097F0A020AEA85A6
:1044B3000A0CE508250CF582E50922E0F50CA3E0DA
:1044C300F50D750E00780C22123DC81244EFA3A31C
:1044D300A322F0050A8E828F83A3A3A3A3A3A3A37E
:1044E300A322A3A3125716A31244EF221249E9A34E
:1044F300A32274F61207848A828B83E0FC90035311
:1045030012459C74027808120EADEC4508FCAD0907
:10451300EA241212459674067808120EADEC45088B
:10452300FCED4509FDEA2415F582EB1230436004E6
:10453300780180027800E4C8F9ED49FDEA2411F519
:1045430082EB123043F508880974097808120EAD1E
:10455300ED4509FDEA2416124596740B7808120EF0
:10456300ADED4509FDEA2417124596740C7808123F
:104573000EADED4509FD8A828B83A3A3A3A3A3A359
:1045830012459C740A7808120EADECFAED4509FB4E
:10459300024C05F582EB123DCBE0F50875090022CC
:1045A300E085088285098322A3E0F98508828509CD
:1045B300832274EE1207848A0A8B0BECFEEDFF75DF
:1045C3000F01E9C39408500579000247A88E828F32
:1045D30083E9F0124A0EE96003750F001249F28E67
:1045E300828F83124A3CEE12537AEF124A31C0E0B3
:1045F300EE2411122F73D0E0124A29C0E0EE2412E8
:10460300122F73D0E01240927408125434A3A3A360
:10461300E060151249DAEE2413F582EF124C448E52
:10462300828F83A3E02408F08E828F83A3A3A3A3A6
:10463300A3A3A3A3E060218E828F83A38582088531
:104643008309124A1DEE2415F582EF124C448508A6
:1046530082850983E02408F08E828F83A3A3A3A31A
:10466300A3E0601A8E828F83A38582088583091253
:104673004A018E828F83A3A3A3A3A31247CDEE2463
:104683001912407FEE241B12407FA3124C88E07066
:104693000302473CEE2419F8EF3400F98E828F832E
:1046A300A3858208858309E0FAE50A2AF582E50BEA
:1046B300123043888289831247CDFAE50A2AF582AC
:1046C300E50B123043C0E0EE241A122F73D0E01230
:1046D30047CD88828983E06059F890254BE493C3E2
:1046E30098500575110C8008EE2419123040F5110D
:1046F3008E828F83A3E0F8E50A28F50CE50B1247B9
:10470300B1120D3AE511C333FCE433FD7A507B0C4F
:104713001247AB120D51EE241B122F737450F0A3EA
:10472300740CF0E511C333F8850882850983E0280A
:104733008006EE24181258E5F08E828F83A3E0F8EA
:104743008E828F83E0C39850030245CBA3E0FA8A9D
:1047530008E50A2508F8E50B3400F9EE241DF58277
:10476300EF124D501247DDC39AC0E0EE2417122F0B
:1047730073D0E0124C4D602BEE2417F8EF3400F9A0
:10478300880889098882F583E024F2124D31240ECA
:10479300FAA3E03400FB88828983124BD41247BB0F
:1047A300C398F0A90F0244AD121BF5740322340021
:1047B300F50D750E00780C2290034EE0F912211DC1
:1047C300E9F8850882850983E022F0850882850956
:1047D30083E004F022A3A3A3A3A3F08E828F83E03C
:1047E3002274F41207848A088B09EA124872F0EAE9
:1047F3001313543F12486BA3A3A3F0EAC413131279
:104803004872A3A3F0EB12486412487C7409780A37
:10481300120F8B12486212487B740A780A120F8BAC
:10482300E50A5401C0E0EC2418F582ED122F76D08E
:10483300E0124881740B780A120F8B124862A3129C
:10484300487B740C780A120F8B124862A3A3A3A3AC
:10485300A3A3A3A3F0740D7808120F8B022BA2E578
:104863000A54018C828D8322540F8C828D832254AF
:10487300038C828D83A3A322A3A3A3A3A3A3F08A60
:104883000A8B0B22C082C08379008A828B83A3A305
:10489300A3A3A3A3E090034D600FE070228A828B51
:1048A30083A3A3E07019098016E060138A828B83C7
:1048B300124FA2900356E06A7003A3E06B70E70205
:1048C300417E74F01207848A0A8B0B890C8C088D45
:1048D30009124A0E1249F2850882850983124A3C5D
:1048E300E50812537AE509124A31C0E0E5082411BC
:1048F300F582E509122F76D0E0124A29C0E012367C
:1049030074122F76D0E0124D587408124D71601155
:104913001249DAE5082413124D4C124D58E02408CD
:10492300F0850882850983A3A3A3A3A3A3A3A3E07C
:104933006017850882850983A3124A19E50824159F
:10494300124D4C1247DD2408F0850882850983A3A4
:10495300A3A3A3A3E06019850882850983A3AE827C
:10496300AF83124A018508828509831247D804F070
:10497300AA08AB0912128FE9F50D705685088285D6
:104983000983A3A3A3A3A3A31249E57014E0FA8A9E
:104993000EE50A250EF8E50B124C39E50CC39A8097
:1049A30021124A19E8240EF8E9124C3990034EE01B
:1049B300F912211D8E828F83E0F8E50CC39824F24F
:1049C300C399C0E0E5082417F582E509122F76D0D4
:1049D300E0F0A90D025369E50A2408F8E50B340059
:1049E300F9221249E922E0850882850983A32285F9
:1049F3000A82850B83A3A3124A52E0F9EA22E0F864
:104A0300E50A28F582E50B124C60228A828B831219
:104A1300536E12128922AE82AF83E0F8E50A28F8BA
:104A2300E50B3400F922124A65A3A3A3E022123D49
:104A3300CBE8124A5EA3A3E022A3A3A3A3A3A3A349
:104A4300A3A3124A5E124A52A3A3E0F9EAF822E0B2
:104A5300FA850A82850B83A3A3A322F0A3E9124A52
:104A63006522F0850A82850B83A3A3A3A322C082B8
:104A7300C0837AC57B0379E2121FE57AC57B030203
:104A8300417EC082C08390035602417BC082C083B3
:104A930074FE120DCF851882851983AA82AB8379A0
:104AA3004B124AAF124FAB7402024154121FE585F9
:104AB300188285198322C082C083794A121FE502B6
:104AC300417E74F61207849003CDE0FE04F0EEF904
:104AD3001212418B09EA450970EDEE60EAF9024CC6
:104AE3000574F0120784EAFEEBFF8C088D09890A2E
:104AF3007410121000E0F50B7411121000E0F50CA5
:104B0300121361EA4B7013E50C7042A90AAC08ADAD
:104B130009EEFAEFFB121379806EE50A6021EA24AD
:104B230002F582EB123043850A082508F8E43400C5
:104B330013E813F070098A828B83A3A37401F0E551
:104B43000C6045E50B70068A828B83E4F074016583
:104B53000C7035E50B9003D47004E4F0802AE00474
:104B6300F0900EF5E0F89003D4E0C398401AE4F017
:104B7300900359E06E7003A3E06F700CEEFAEFFB45
:104B830079011210E5124B8E0253697A017B009072
:104B930003B0E0F9121D6322C082C08374016A70FE
:104BA30001EB70077A01124BC58012900E92124BE3
:104BB300D4EA4B600512291E8003124B8E02417EFC
:104BC3007A207B009003B0E0F9121C49223400F5EF
:104BD30083EAF0A3EBF022C082C083900E940237E5
:104BE3007EC082C083900E9602377E12567C22EEE0
:104BF300240CF582EF3400F583124175E849221243
:104C03000D517F02020AEAA2F0E433851882851966
:104C130083124C267952121FEB22124C2679421230
:104C23001FEB22F0AA82AB8322AA08AB099003B040
:104C3300E0F9121C1F223400F9E508241DF582E572
:104C430009123DCBE8F0A3E9F022125438A3A3E004
:104C530022A3F0EE2415124C5D22F582EF3400F509
:104C630083E022124C6A223400F583E0F8A3E0F9D2
:104C73008882898322E0F8124C7E22A3E0F98E8297
:104C83008F83A3A322F0EE2418123DC822F0EE2452
:104C930016123DC82274F4120784EAFEEBFF7A0071
:104CA3007B04124B92124D27124C479003657409F3
:104CB300F012129B8A088B09AC08AD09EE2413127B
:104CC3002F73124FAB124E7B640170487A0F124D53
:104CD3001A60418A828B837402124D31FAA3E0FB7E
:104CE3008A828B83A3E0FC8A828B83A3A3E0FBEC01
:104CF300850882850983A3A3124BD58882898312F1
:104D03004FAF1245A3124C54FAA3E0FB794A121F8A
:104D1300EB124C2C0230387B00121C138A088B09CF
:104D2300EA450922900336124175900E9622F0EE61
:104D3300241DF8EF124D3B221242B6E022124D44DD
:104D4300223400F5837401F022F582E509123DCB8C
:104D5300E8F0A3E922124D5C22124D6022F085088F
:104D630082850983A322124D60A3A3A3A322124D1C
:104D730069A3A3E0221251821212EF22EE2417F547
:104D830082EF124D4412129BEE241A123DC8EAF030
:104D9300A3EBF02274F412078474F3120DCF890885
:104DA300EAFEEBFF7C0D7D0079008518828519836F
:104DB300AA82AB83121C01EE241D122F7312566DAF
:104DC300A3E0F8741F58600A7901121BC579000229
:104DD3004E72E8A2E55008740C1210007401F0E85A
:104DE300A2E75008740B1210007401F0E8A2E674F5
:104DF3000A50081210007401F08008121000E064D9
:104E0300017005EE24138003EE24151254AA7402D4
:104E1300121000AA82AB83121D93122F70124E80C0
:104E2300124C47740A121000E064017033122951C6
:104E3300703B1212A78A0A8B0BA80AA90BEE240B4C
:104E4300123040687003A3E069702212129BEAFCDF
:104E5300EBFD7402121000AA82AB83124E7B600D2D
:104E6300851882851983AA82AB831210DFA908747F
:104E73000D023035EEFAEFFB121D8DE922E0124EE2
:104E83008522F8A3E0F98518828519832274F61226
:104E9300078474F3120DCF8A088B09ECFEEDFF7CB7
:104EA3000D7D007900851882851983AA82AB831250
:104EB3005812A3A3A3A3A3A3A3A3A3124F1A124FEE
:104EC30023F8A2E55008740B1210007401F0E8A255
:104ED300E75008740A1210007401F0E8A2E6EE50DD
:104EE300042413800224151254AA7402121000120F
:104EF3004F0CA3A3E0C0E0740C121000D0E01251D9
:104F03007A1210D9740D024C02AA82AB83121D933C
:104F130085088285098322E0124E85E8F0A3E92201
:104F2300F0123DC5125671A3E02274F71207847480
:104F3300E1120DCFEAFEEBFF8E828F83124FAFA3F8
:104F4300A3A3E0A2E050518E828F83122AB18A82FA
:104F53008B83A3A3A3A3A3A3E054FE124FC78A8208
:104F63008B83124FC0E0F98A828B83E0241CFAA35F
:104F7300E01239E1124FAB121295E9701B741D1246
:104F83001000124FBA7011851882851983AC82AD57
:104F930083EEFAEFFB1212DD0251EC8E828F83A3B4
:104FA300A3A3A3A3A3A3A3A312302E22124FB3221E
:104FB300125675A3A3A322123DFD640422E0241B11
:104FC3001242AF2212415DAC82AD8322E9F879002F
:104FD300740468600A740A686005740368700109E0
:104FE300020D0374F61207848A828B837420F0A364
:104FF300A37401F012108B8A088B09AE08AF09EE77
:105003004F60108E828F837401F09003A3E07003CE
:10501300124D7FEEFAEFFB024C05C082C083900372
:10502300B97401F0E9A2E350037403F0E9A2E1507B
:1050330004E0D2E2F002417E74F612078479007C28
:10504300008A088B097808120AA4F8FF076E506CCF
:10505300506C506C506C50655069506E5062500CDF
:1050630080097C0480050C80F67C089003B9E05C21
:105073006003098003EC600109024C0574F6120712
:10508300848A828B83E07012A3124BFC600C8A82A9
:105093008B83124FAA12214780047A007B00024CB3
:1050A3000574F512078474F3120DCF8A088B09EC8B
:1050B300FEEDFF750A12EA45097005790002517386
:1050C300900356E065087004A3E06509701412129A
:1050D3009BEAFCEBFD124E777005750A01800375A0
:1050E3000A00851882851983E4F004121000E5088C
:1050F300F0A3E50912517A12104FE96027740312E5
:105103001000AA82AB83121031E964017016750A8C
:10511300017403121000AC82AD83124E77602175C7
:105123000A00801C7412650A70169003A2E06402E0
:10513300700EEEFCEFFDAA08AB09121067E970DFF1
:10514300EEFCEFFDAA08AB09121367E9F8740A68CD
:105153007005750A01801774A0687012EEFCEFFDEC
:10516300AA08AB09121373AA08AB09121385A90A7B
:10517300740D025B7A740212517E22125182221242
:10518300415DAA82AB832274F7120784EAFEEBFF28
:105193008E828F83A3A3A3A3A3A3A3A3E06015EE8F
:1051A3002415122F7312301E121307E964017004C1
:1051B300790180258E828F83A3A3A3A3A3A3A3E056
:1051C3006015EE2413122F731251DEFAA3E0FB12C3
:1051D3001307E9640160D979008013123ACDA3A3C0
:1051E300A3A3A3A3A3A3A3E022741F120D517F01C2
:1051F300020AEA74F012078474FD120DCF8A088B39
:1052030009ECFEEDFF890B7413121000E0F50C7529
:105213000A01740112100074041256A56048E50CCB
:10522300601DEA2417F582EB1258E81256938A821E
:105233008B83E0D2E7F0EA2414F582EB124082126A
:105243005379EB124C667403125C0BEE88828983EC
:10525300A3A3F0EF88828983A3A3123B77123B7E3B
:10526300121085E9F50AA90A740302536674EC1255
:10527300078474F5120DCF8A0A8B0B890C8C0E8D63
:105283000F741F121000E0F50D7420121000E0F5EA
:1052930010A3E0F5117E01EE121000740AF0E9701C
:1052A30007E50DC333240AF012544B700302534D28
:1052B3001254607409F0A3E50CC43354E0450D1295
:1052C3005472E50C702D7C008023ECC333F8E43377
:1052D300F9E51028F8E51139F98882898312535AC0
:1052E30088828983123290F0A30EAF830CECC395AE
:1052F3000D40D7E5082417F582E509124D40121237
:105303009BE508241AF582E509124BD074031210A9
:1053130000AC82AD83AA0AAB0B121037E96019E522
:10532300082416F582E509125354121000A882A925
:1053330083E5082418124C40850882850983125C92
:1053430007AA08AB09121085E9FEEEF9740B0254A3
:1053530043124D44740322E08E828F83F0A3AE8206
:10536300AF8322120D517F08020AEA123E25F9EAA1
:105373002400E439FB22EA240BF5822274EE12079F
:10538300848A0C8B0D890E8C088D097412121000FF
:10539300E0F50F741312100012542C900E01124BEF
:1053A300FC6077E50FC333F8E433F9E8240EFAE938
:1053B3003400FB121C138A108B11AE10AF11EE4F89
:1053C30060588E828F8374D4F0A3A3E50CF0A3E519
:1053D3000D125434E50EF0AC08AD09EE2405FAEFD6
:1053E3001256AEEE240D122F73E50FF0850A0885D1
:1053F3000B09750A007808120D3AE50FC333FCE474
:1054030033FDEE240EFAEF125423120D51EEFAEF90
:10541300FB900E0112566D1221EE0244ADFAE5091E
:105423003400FB121BF5740322E0F50AA3E0F50B2D
:10543300221254382212543C22124096A3A3A322D0
:10544300120D517F0C020AEA851882851983AA82FC
:10545300AB831212EF8A088B09EA450922EA240B6F
:10546300F582EB124C60FEA3E0FF8E828F8322F065
:10547300A3AE82AF83AC0EAD0FEEFAEFFB125484F2
:1054830022121D9312548B22EE2408FEEF3400FFE8
:1054930022E0FA8E828F83A3A3E022FEA3E03400EE
:1054A300FF8E828F83E022123DC81254B122E0FCAA
:1054B300A3E0FD2212302E1212832274F612078407
:1054C300EAFEEBFF9003BA801388828983E06E7053
:1054D30003A3E06F603A88828983A3A3124BFC7015
:1054E300E87A047B00121C918A088B09A808A90991
:1054F300E849601C8882898312551A9003BA124FB7
:10550300AB88828983A3A3124BD49003BA124C476E
:10551300024C058A828B83EEF0A3EFF02274F4121F
:1055230007847E009003BA80070E88828983A3A331
:10553300124BFC70F4EEC333FAE433FB1255C8602C
:105543007E7F009003BA8024888289831254ADEF52
:10555300C333FAE433FBE5082AF582E5093BF58317
:10556300ECF0A3EDF00F88828983A3A3124BFC70A8
:10557300D79003AB12298B7003A3E06978087019E5
:10558300120D3EEEF50A780A120D427C777D0379FF
:10559300009003AB1255D3801A120D3EEEF50A7834
:1055A3000A120D427C777D0379009003AB124FAB57
:1055B3001213197403120D51AA08AB09121C971286
:1055C300109D023038121C918A088B09EA45092282
:1055D30012302E12131F22C082C08380128A828B44
:1055E30083A3A3123DD69003BA124C47121C979083
:1055F30003BA123CE670E602417E74F61207849009
:105603000363123E029003CE12565C124C477ACECD
:105613007B037950121FEB9003CE122BAAFAEFFBF8
:1056230012137F9003CE123E02900E03124BFC60C6
:10563300257A067B00121C13EA4B601A8A828B833D
:1056430074D5F0A3A3E412568204125693900E036A
:1056530012566D1221EE024C0512566022E0F8A399
:10566300E0F9900363228E828F83125671221256C1
:105673007522E0F812567B22A3E0F583888222127A
:1056830056862212568A22F08A828B83A3A3A322F0
:10569300125686A3EEF0A3EFF022F582EF124C60D0
:1056A300F922124D78EA4B22FAE5093400FB121D68
:1056B3009322124C7FA3A3A3A3A3A3A32290254DBC
:1056C300E4932401F8E43400F97A027B002274F7AE
:1056D3001207847E008004125CBE0E1257E240F76C
:1056E3007E00EE1256FD74FEF0A304125712E4F08E
:1056F3000EEEC3940340EB0251F175F003A4F8A935
:10570300F074BC28F8740339F988828983A32212C0
:10571300571622F0888289832274F71207847F0048
:1057230080010F90254FE493F8EFC3985026EF12B2
:1057330058CE6A7003A3E06B70E8125C6B6C700365
:10574300A3E06D600A74FF6C700374FF6D70D31275
:1057530057D980047A007B000251F174F612078452
:105763007CFF7DFF7AFE7BFF121343EA4B7040758B
:1057730008008036E50875F017A4F8A9F074EB2843
:10578300F582740A1258E0600C74EA28F582740AF0
:105793001258E0701374DC28FE740A39FF8E828F6E
:1057A300831258EDEEFAEFFB050812584840C50284
:1057B3004C0574F41207848A088B09ECFEEDFF8014
:1057C3000B121355EEFCEFFDAA08AB09121343EAC3
:1057D3004B70EE02303874DC28FA740A39FB2290DD
:1057E300254FE493F8EEC3982274F7120784EAFE78
:1057F300EBFFEE4F601012580C74FEF0A304125C22
:105803001114F0A304F00251F17C177D007900120A
:105813001C018E828F832274F7120784EAFEEBFF4A
:105823007508008018E50875F017A4F8A9F0125C54
:10583300767003A3E06F6003125CC6050812584834
:1058430040E30251F190254FE493F8E508C3982211
:1058530074F61207841213438A088B09A808A9094E
:10586300E849600AE8240DFAE93400FB80047A0071
:105873007B00024C0574F41207848A0A8B0BECFE3E
:10588300EDFF750800750900802EE50975F017A472
:10589300F8A9F0125CB1601EE5091258CE650A70D2
:1058A30004A3E0650B700375080AEEFCEFFD125BC1
:1058B3006D60034308A0050990254FE493F8E509BB
:1058C300C3985004E50860C2022BA275F017A4F830
:1058D300A9F01258D92274DC28F582740A39F583A9
:1058E300E022F582EF123DCBE42212302E12117B1F
:1058F30022125716A3A3A3A3A3A3A3A32274F21252
:1059030007848A088B09ECFEEDFF740E1210001257
:10591300542C750C007C007D018010121C0DE50CCD
:10592300F5F0EA84ACF0750C007D00780079008016
:1059330003125AAA125B0640030259CCE8FAE9FBA8
:10594300EA75F017A4FA85F00D75F017EBA4250D91
:10595300125AE27003A3E0F460D7125AC0650870CC
:1059630004A3E0650960CA125AC06E7003A3E06F16
:1059730060BF125AC0650A7004A3E0650B60B2E809
:10598300FAE9FBEA75F017A4FA75F017EBA4250DF5
:10599300FB74EA2AF582740A125AA1509474016DB9
:1059A300050C608DE50CC39C4087E875F017A4F8DF
:1059B300AAF075F017E9A42AF974DC28F582740AB1
:1059C30039F583124FAB025A9E7800790080031297
:1059D3005AAA125B134003025A85E8FAE9FBEA75F7
:1059E300F012A4FA85F00D125AF264FE7003A3E0DC
:1059F300F460DC125AE865087004A3E0650960CF1F
:105A0300125AE86E7003A3E06F60C4125AE8650A85
:105A13007004A3E0650B60B7E8FAE9FBEA75F012DE
:105A2300A4FA75F012EBA4250DFB746B2AF58274AE
:105A330009125AA15099E8FAE9FBEA75F012A4FA9F
:105A430075F012EBA4250D125AB364016081E06472
:105A53000270030259D274016D050C70030259D20E
:105A6300E50CC39C50030259D2E875F012A4F8AABE
:105A7300F075F012E9A42AF9746228F58274090218
:105A830059C3E50C6011EC700E7401650C600302E0
:105A9300591E7C010259297AFE7BFF0229973BF5A7
:105AA30083E014C3940622E8240108E93400F922B0
:105AB300FB74662AF58274093BF583E022E8FAE970
:105AC300FBEA75F017A4FA75F017EBA4250D125A2B
:105AD300D522FB74DC2AF582740A3BF583E022129B
:105AE3005AD564FE22E8FAE9FBEA75F012A4FA75C6
:105AF300F012EBA4250DFB74622AF58274093BF5C1
:105B030083E02290254FE493FAC3E89AE9940022B4
:105B1300902547E493FA740193FBC3E89AE99B2227
:105B230074F51207848A088B09ECFEEDFF750A00F1
